{"abi":[{"type":"constructor","inputs":[{"name":"gameCreator","type":"address","internalType":"address"}],"stateMutability":"payable"},{"type":"function","name":"decideRandomEvent","inputs":[{"name":"randomWord","type":"uint256","internalType":"uint256"}],"outputs":[{"name":"received","type":"bool","internalType":"bool"}],"stateMutability":"nonpayable"},{"type":"function","name":"enterGame","inputs":[],"outputs":[],"stateMutability":"payable"},{"type":"function","name":"getParticipant","inputs":[{"name":"index","type":"uint256","internalType":"uint256"}],"outputs":[{"name":"","type":"address","internalType":"address"}],"stateMutability":"view"},{"type":"function","name":"getState","inputs":[],"outputs":[{"name":"","type":"uint8","internalType":"uint8"}],"stateMutability":"nonpayable"},{"type":"function","name":"s_players","inputs":[{"name":"","type":"uint256","internalType":"uint256"}],"outputs":[{"name":"","type":"address","internalType":"address"}],"stateMutability":"view"},{"type":"event","name":"GameJoined","inputs":[{"name":"player","type":"address","indexed":false,"internalType":"address"}],"anonymous":false},{"type":"event","name":"GameStart","inputs":[],"anonymous":false},{"type":"event","name":"SendEmail","inputs":[{"name":"events","type":"string[]","indexed":false,"internalType":"string[]"}],"anonymous":false},{"type":"event","name":"SendMsg","inputs":[{"name":"suggention","type":"string[]","indexed":false,"internalType":"string[]"}],"anonymous":false},{"type":"event","name":"SendNews","inputs":[{"name":"news","type":"string[]","indexed":false,"internalType":"string[]"}],"anonymous":false},{"type":"error","name":"AI_responseFail","inputs":[]},{"type":"error","name":"CallerNotUpperControl","inputs":[{"name":"caller","type":"address","internalType":"address"},{"name":"upperControl","type":"address","internalType":"address"}]},{"type":"error","name":"GameNotInProgressState","inputs":[]},{"type":"error","name":"GameNotInWaitingState","inputs":[]},{"type":"error","name":"ParicipantDuplicated","inputs":[{"name":"player","type":"address","internalType":"address"}]},{"type":"error","name":"ParticipantFull","inputs":[]},{"type":"error","name":"WrongFeeAmount","inputs":[]}],"bytecode":{"object":"0x60a060408190526005805460ff1990811682556010805482169055600060115560128054909116909117905561072538819003908190833981016040819052610047916100b6565b3360805260058054829160009160ff16908110610066576100666100e6565b0180546001600160a01b0319166001600160a01b0392909216919091179055600580546000906100989060ff166100fc565b91906101000a81548160ff021916908360ff16021790555050610129565b6000602082840312156100c857600080fd5b81516001600160a01b03811681146100df57600080fd5b9392505050565b634e487b7160e01b600052603260045260246000fd5b600060ff821660ff810361012057634e487b7160e01b600052601160045260246000fd5b60010192915050565b6080516105cc6101596000396000818161011101528181610358015281816103f5015261043701526105cc6000f3fe60806040526004361061004a5760003560e01c80631865c57d1461004f5780631b9db2ef1461007b578063218bd577146100b357806380679c4d146100bd578063ae771f6b146100ed575b600080fd5b34801561005b57600080fd5b5061006461010d565b60405160ff90911681526020015b60405180910390f35b34801561008757600080fd5b5061009b6100963660046104cd565b610198565b6040516001600160a01b039091168152602001610072565b6100bb6101bd565b005b3480156100c957600080fd5b506100dd6100d83660046104cd565b6103e8565b6040519015158152602001610072565b3480156100f957600080fd5b5061009b6101083660046104cd565b6104ad565b60007f00000000000000000000000000000000000000000000000000000000000000006001600160a01b031663b7d0628b6040518163ffffffff1660e01b81526004016020604051808303816000875af115801561016f573d6000803e3d6000fd5b505050506040513d601f19601f8201168201806040525081019061019391906104e6565b905090565b60008082600581106101ac576101ac610510565b01546001600160a01b031692915050565b60005b60055460ff90811690821610156102205733600060ff8316600581106101e8576101e8610510565b01546001600160a01b03160361021857604051637b811e5b60e01b81523360048201526024015b60405180910390fd5b6001016101c0565b50662386f26fc10000341461024857604051636bae82db60e11b815260040160405180910390fd5b6005805460ff161061026d5760405163e98beec560e01b815260040160405180910390fd5b61027561010d565b60ff1660011461029857604051631afef96760e31b815260040160405180910390fd5b60058054339160009160ff169081106102b3576102b3610510565b0180546001600160a01b0319166001600160a01b0392909216919091179055600580546000906102e59060ff1661053c565b825460ff9182166101009390930a92830291909202199091161790556040513381527fd196f2977fe2b8b63f631a98b5e5967845e4fcf00f48ced5587cafe76122ea9c9060200160405180910390a160055460ff16600419016103e657604051636dd047f360e01b8152600260048201527f00000000000000000000000000000000000000000000000000000000000000006001600160a01b031690636dd047f390602401600060405180830381600087803b1580156103a457600080fd5b505af11580156103b8573d6000803e3d6000fd5b50506040517f4cf2e2dcdeacb2322843921968cb0e6a97a686594cb0a4f29abb65a7ed651952925060009150a15b565b6000336001600160a01b037f000000000000000000000000000000000000000000000000000000000000000016146104645760405163eceacbd560e01b81523360048201526001600160a01b037f000000000000000000000000000000000000000000000000000000000000000016602482015260440161020f565b61046c61010d565b60ff1660021461048f57604051630fec256b60e31b815260040160405180910390fd5b61049a600f8361055b565b6104a590601061057d565b601155919050565b600081600581106104bd57600080fd5b01546001600160a01b0316905081565b6000602082840312156104df57600080fd5b5035919050565b6000602082840312156104f857600080fd5b815160ff8116811461050957600080fd5b9392505050565b634e487b7160e01b600052603260045260246000fd5b634e487b7160e01b600052601160045260246000fd5b600060ff821660ff810361055257610552610526565b60010192915050565b60008261057857634e487b7160e01b600052601260045260246000fd5b500690565b8082018082111561059057610590610526565b9291505056fea2646970667358221220b2d386d67dd7aba242c1fb73b66c45a7fe634e2915b583a463d243811abc061a64736f6c63430008180033","linkReferences":{}},"methodIdentifiers":{"decideRandomEvent(uint256)":"80679c4d","enterGame()":"218bd577","getParticipant(uint256)":"1b9db2ef","getState()":"1865c57d","s_players(uint256)":"ae771f6b"},"id":34}