{"abi":[{"type":"constructor","inputs":[{"name":"gameCreator","type":"address","internalType":"address"}],"stateMutability":"payable"},{"type":"function","name":"availableBalanceOf","inputs":[{"name":"account","type":"address","internalType":"address"},{"name":"id","type":"uint256","internalType":"uint256"}],"outputs":[{"name":"","type":"uint256","internalType":"uint256"}],"stateMutability":"view"},{"type":"function","name":"buyToken","inputs":[{"name":"id","type":"uint256","internalType":"uint256"},{"name":"seller","type":"address","internalType":"address"},{"name":"amount","type":"uint256","internalType":"uint256"}],"outputs":[],"stateMutability":"nonpayable"},{"type":"function","name":"decideRandomEvent","inputs":[{"name":"randomWord","type":"uint256","internalType":"uint256"}],"outputs":[{"name":"received","type":"bool","internalType":"bool"}],"stateMutability":"nonpayable"},{"type":"function","name":"enterGame","inputs":[],"outputs":[],"stateMutability":"payable"},{"type":"function","name":"firstFulfillment","inputs":[{"name":"requestId","type":"bytes32","internalType":"bytes32"},{"name":"response","type":"string[]","internalType":"string[]"}],"outputs":[],"stateMutability":"nonpayable"},{"type":"function","name":"fulfillRequest","inputs":[{"name":"requestId","type":"bytes32","internalType":"bytes32"},{"name":"response","type":"string","internalType":"string"},{"name":"player_index","type":"uint8","internalType":"uint8"}],"outputs":[],"stateMutability":"nonpayable"},{"type":"function","name":"getNetWealth","inputs":[{"name":"account","type":"address","internalType":"address"}],"outputs":[{"name":"netWealth","type":"uint256","internalType":"uint256"}],"stateMutability":"view"},{"type":"function","name":"getPlayer","inputs":[{"name":"index","type":"uint256","internalType":"uint256"}],"outputs":[{"name":"","type":"address","internalType":"address"}],"stateMutability":"view"},{"type":"function","name":"getPlayerResponse","inputs":[],"outputs":[],"stateMutability":"nonpayable"},{"type":"function","name":"getState","inputs":[],"outputs":[{"name":"","type":"uint8","internalType":"uint8"}],"stateMutability":"nonpayable"},{"type":"function","name":"getTokenPrice","inputs":[{"name":"id","type":"uint256","internalType":"uint256"}],"outputs":[{"name":"","type":"uint256","internalType":"uint256"}],"stateMutability":"view"},{"type":"function","name":"listToken","inputs":[{"name":"id","type":"uint256","internalType":"uint256"},{"name":"amount","type":"uint256","internalType":"uint256"}],"outputs":[],"stateMutability":"nonpayable"},{"type":"function","name":"listedBalanceOf","inputs":[{"name":"account","type":"address","internalType":"address"},{"name":"id","type":"uint256","internalType":"uint256"}],"outputs":[{"name":"","type":"uint256","internalType":"uint256"}],"stateMutability":"view"},{"type":"function","name":"s_players","inputs":[{"name":"","type":"uint256","internalType":"uint256"}],"outputs":[{"name":"","type":"address","internalType":"address"}],"stateMutability":"view"},{"type":"function","name":"setPlayerResponse","inputs":[{"name":"choice","type":"uint8","internalType":"uint8"}],"outputs":[],"stateMutability":"nonpayable"},{"type":"function","name":"unlistToken","inputs":[{"name":"id","type":"uint256","internalType":"uint256"},{"name":"amount","type":"uint256","internalType":"uint256"}],"outputs":[],"stateMutability":"nonpayable"},{"type":"event","name":"FirstRequest","inputs":[{"name":"requestId","type":"bytes32","indexed":false,"internalType":"bytes32"},{"name":"player_index","type":"uint256","indexed":false,"internalType":"uint256"}],"anonymous":false},{"type":"event","name":"GameJoined","inputs":[{"name":"player","type":"address","indexed":false,"internalType":"address"}],"anonymous":false},{"type":"event","name":"GameStart","inputs":[],"anonymous":false},{"type":"event","name":"PlayerResponded","inputs":[{"name":"player","type":"address","indexed":false,"internalType":"address"},{"name":"choice","type":"uint8","indexed":false,"internalType":"uint8"}],"anonymous":false},{"type":"event","name":"RequestOption","inputs":[{"name":"requestId","type":"bytes32","indexed":false,"internalType":"bytes32"},{"name":"playerTopic","type":"string","indexed":false,"internalType":"string"},{"name":"player_index","type":"uint256","indexed":false,"internalType":"uint256"},{"name":"option","type":"string","indexed":false,"internalType":"string"}],"anonymous":false},{"type":"event","name":"SendEmail","inputs":[{"name":"events","type":"string[]","indexed":false,"internalType":"string[]"}],"anonymous":false},{"type":"event","name":"SendMsg","inputs":[{"name":"suggention","type":"string[]","indexed":false,"internalType":"string[]"}],"anonymous":false},{"type":"event","name":"SendNews","inputs":[{"name":"news","type":"string[]","indexed":false,"internalType":"string[]"}],"anonymous":false},{"type":"event","name":"TokenBought","inputs":[{"name":"id","type":"uint256","indexed":true,"internalType":"uint256"},{"name":"seller","type":"address","indexed":true,"internalType":"address"},{"name":"amount","type":"uint256","indexed":true,"internalType":"uint256"}],"anonymous":false},{"type":"event","name":"TokenListed","inputs":[{"name":"id","type":"uint256","indexed":true,"internalType":"uint256"},{"name":"player","type":"address","indexed":true,"internalType":"address"},{"name":"amount","type":"uint256","indexed":true,"internalType":"uint256"}],"anonymous":false},{"type":"event","name":"TokenUnlisted","inputs":[{"name":"id","type":"uint256","indexed":true,"internalType":"uint256"},{"name":"player","type":"address","indexed":true,"internalType":"address"},{"name":"amount","type":"uint256","indexed":true,"internalType":"uint256"}],"anonymous":false},{"type":"error","name":"AI_responseFail","inputs":[]},{"type":"error","name":"CallerNotGamePlayer","inputs":[{"name":"caller","type":"address","internalType":"address"}]},{"type":"error","name":"CallerNotUpperControl","inputs":[{"name":"caller","type":"address","internalType":"address"},{"name":"upperControl","type":"address","internalType":"address"}]},{"type":"error","name":"GameNotInProgressState","inputs":[]},{"type":"error","name":"GameNotInWaitingState","inputs":[]},{"type":"error","name":"NotEnoughBalance","inputs":[{"name":"id","type":"uint256","internalType":"uint256"},{"name":"amount","type":"uint256","internalType":"uint256"},{"name":"balance","type":"uint256","internalType":"uint256"}]},{"type":"error","name":"NotEnoughListedBalance","inputs":[{"name":"id","type":"uint256","internalType":"uint256"},{"name":"amount","type":"uint256","internalType":"uint256"},{"name":"sellerListedBalance","type":"uint256","internalType":"uint256"}]},{"type":"error","name":"ParicipantDuplicated","inputs":[{"name":"player","type":"address","internalType":"address"}]},{"type":"error","name":"ParticipantFull","inputs":[]},{"type":"error","name":"WrongFeeAmount","inputs":[]}],"bytecode":{"object":"0x60a060408190526000805461ffff191681556001556200187438819003908190833981016040819052620000339162000107565b336080526000548190600b9060ff166003811062000055576200005562000139565b0180546001600160a01b0319166001600160a01b03928316179055811660008181527f628971151cb24dee737f6abea9bff35ce226e4c8f5760305d49b372572839090602090815260408083206127109055825460ff9081168452601d83528184209484529382528083206103e89055825484168352601f909152812060649055805490918291620000e891166200014f565b91906101000a81548160ff021916908360ff160217905550506200017d565b6000602082840312156200011a57600080fd5b81516001600160a01b03811681146200013257600080fd5b9392505050565b634e487b7160e01b600052603260045260246000fd5b600060ff821660ff81036200017457634e487b7160e01b600052601160045260246000fd5b60010192915050565b6080516116b8620001bc6000396000818161035f015281816105e6015281816109560152818161099801528181610a450152610a8701526116b86000f3fe6080604052600436106100f35760003560e01c80638575ec881161008a578063c457fb3711610059578063c457fb3714610299578063dc7b3055146102c6578063e55ae4e8146102e6578063f3e626401461030657600080fd5b80638575ec881461020c578063922a211814610221578063a9438abc14610241578063ae771f6b1461026157600080fd5b8063511cd8cf116100c6578063511cd8cf1461016e5780635ebb63651461019c57806375c1631d146101bc57806380679c4d146101dc57600080fd5b8063125c4f65146100f85780631865c57d1461011a578063218bd5771461014657806326f789a21461014e575b600080fd5b34801561010457600080fd5b5061011861011336600461119e565b610326565b005b34801561012657600080fd5b5061012f61035b565b60405160ff90911681526020015b60405180910390f35b6101186103e6565b34801561015a57600080fd5b506101186101693660046111f9565b610676565b34801561017a57600080fd5b5061018e6101893660046112df565b610798565b60405190815260200161013d565b3480156101a857600080fd5b5061018e6101b73660046112df565b6107c2565b3480156101c857600080fd5b506101186101d7366004611309565b6107e9565b3480156101e857600080fd5b506101fc6101f736600461132b565b610949565b604051901515815260200161013d565b34801561021857600080fd5b50610118610a0f565b34801561022d57600080fd5b5061011861023c366004611309565b610b10565b34801561024d57600080fd5b5061011861025c366004611344565b610c55565b34801561026d57600080fd5b5061028161027c36600461132b565b610d24565b6040516001600160a01b03909116815260200161013d565b3480156102a557600080fd5b5061018e6102b436600461132b565b6000908152601f602052604090205490565b3480156102d257600080fd5b5061018e6102e1366004611368565b610d44565b3480156102f257600080fd5b5061028161030136600461132b565b610dc7565b34801561031257600080fd5b50610118610321366004611383565b610ded565b81600280018260ff168154811061033f5761033f6113b8565b9060005260206000200190816103559190611458565b50505050565b60007f00000000000000000000000000000000000000000000000000000000000000006001600160a01b031663b7d0628b6040518163ffffffff1660e01b81526004016020604051808303816000875af11580156103bd573d6000803e3d6000fd5b505050506040513d601f19601f820116820180604052508101906103e19190611518565b905090565b60005b60005460ff90811690821610156104495733600b60ff831660038110610411576104116113b8565b01546001600160a01b03160361044157604051637b811e5b60e01b81523360048201526024015b60405180910390fd5b6001016103e9565b50662386f26fc10000341461047157604051636bae82db60e11b815260040160405180910390fd5b600054600360ff909116106104995760405163e98beec560e01b815260040160405180910390fd5b6104a161035b565b60ff166001146104c457604051631afef96760e31b815260040160405180910390fd5b6000543390600b9060ff16600381106104df576104df6113b8565b0180546001600160a01b0319166001600160a01b03929092169190911790553360008181527f628971151cb24dee737f6abea9bff35ce226e4c8f5760305d49b372572839090602090815260408083206127109055825460ff9081168452601d83528184209484529382528083206103e89055825484168352601f909152812060649055805490918291610573911661154b565b825460ff9182166101009390930a92830291909202199091161790556040513381527fd196f2977fe2b8b63f631a98b5e5967845e4fcf00f48ced5587cafe76122ea9c9060200160405180910390a160005460ff166002190161067457604051636dd047f360e01b8152600260048201527f00000000000000000000000000000000000000000000000000000000000000006001600160a01b031690636dd047f390602401600060405180830381600087803b15801561063257600080fd5b505af1158015610646573d6000803e3d6000fd5b50506040517f4cf2e2dcdeacb2322843921968cb0e6a97a686594cb0a4f29abb65a7ed651952925060009150a15b565b60005b6003811015610793578161068e82600361156a565b8151811061069e5761069e6113b8565b6020026020010151600260000182815481106106bc576106bc6113b8565b9060005260206000200190816106d29190611458565b50816106df82600361156a565b6106ea906001611581565b815181106106fa576106fa6113b8565b602002602001015160026001018281548110610718576107186113b8565b90600052602060002001908161072e9190611458565b508161073b82600361156a565b610746906002611581565b81518110610756576107566113b8565b602002602001015160026003018281548110610774576107746113b8565b90600052602060002001908161078a9190611458565b50600101610679565b505050565b6000818152601d602090815260408083206001600160a01b03861684529091529020545b92915050565b6000908152601e602090815260408083206001600160a01b03949094168352929052205490565b6000805b600381101561082b5733600b826003811061080a5761080a6113b8565b01546001600160a01b031603610823576001915061082b565b6001016107ed565b50801561092e5761083a61035b565b60ff1660021461085d57604051630fec256b60e31b815260040160405180910390fd5b60006108693385610798565b90508281101561089d5760405163a484ed0f60e01b8152600481018590526024810184905260448101829052606401610438565b6000848152601e60209081526040808320338452909152812080548592906108c6908490611581565b90915550506000848152601d60209081526040808320338452909152812080548592906108f4908490611594565b90915550506040518390339086907f7765a1c07bdce3390c521eaeb86030b188b77cbaba2d76bd7c9c32d906bfbcba90600090a450505050565b60405163f5665c0b60e01b8152336004820152602401610438565b6000336001600160a01b037f000000000000000000000000000000000000000000000000000000000000000016146109c55760405163eceacbd560e01b81523360048201526001600160a01b037f0000000000000000000000000000000000000000000000000000000000000000166024820152604401610438565b6109cd61035b565b60ff166002146109f057604051630fec256b60e31b815260040160405180910390fd5b6109fb600f836115a7565b610a06906010611581565b6001555b919050565b610a1761035b565b60ff16600214610a3a57604051630fec256b60e31b815260040160405180910390fd5b336001600160a01b037f00000000000000000000000000000000000000000000000000000000000000001614610ab45760405163eceacbd560e01b81523360048201526001600160a01b037f0000000000000000000000000000000000000000000000000000000000000000166024820152604401610438565b60005b6003811015610b0d576000601c6000600b8460038110610ad957610ad96113b8565b01546001600160a01b0316815260208101919091526040016000205460ff169050610b0382610fa9565b5050600101610ab7565b50565b6000805b6003811015610b525733600b8260038110610b3157610b316113b8565b01546001600160a01b031603610b4a5760019150610b52565b600101610b14565b50801561092e57610b6161035b565b60ff16600214610b8457604051630fec256b60e31b815260040160405180910390fd5b6000610b9033856107c2565b905082811015610bc4576040516367b75ab560e01b8152600481018590526024810184905260448101829052606401610438565b6000848152601e6020908152604080832033845290915281208054859290610bed908490611594565b90915550506000848152601d6020908152604080832033845290915281208054859290610c1b908490611581565b90915550506040518390339086907f16a4cf4c8063831dff6354ec352b7d70902de559371b4c578fa72e3c754a2d1790600090a450505050565b6000805b6003811015610c975733600b8260038110610c7657610c766113b8565b01546001600160a01b031603610c8f5760019150610c97565b600101610c59565b50801561092e57610ca661035b565b60ff16600214610cc957604051630fec256b60e31b815260040160405180910390fd5b336000818152601c6020908152604091829020805460ff191660ff87169081179091558251938452908301527f8684a5861ae8ac05e20450002c4db07118cb5cb1d412a0ff78c2685b13964f18910160405180910390a15050565b600b8160038110610d3457600080fd5b01546001600160a01b0316905081565b6000805b6003811015610d9c576000818152601f6020526040902054610d6a84836107c2565b610d748584610798565b610d7e9190611581565b610d88919061156a565b610d929083611581565b9150600101610d48565b50610da88260036107c2565b610db3836003610798565b610dbd9190611581565b6107bc9082611581565b6000600b8260038110610ddc57610ddc6113b8565b01546001600160a01b031692915050565b6000805b6003811015610e2f5733600b8260038110610e0e57610e0e6113b8565b01546001600160a01b031603610e275760019150610e2f565b600101610df1565b50801561092e57610e3e61035b565b60ff16600214610e6157604051630fec256b60e31b815260040160405180910390fd5b6000610e6d84866107c2565b905082811015610ea1576040516367b75ab560e01b8152600481018690526024810184905260448101829052606401610438565b6000858152601e602090815260408083206001600160a01b038816845290915281208054859290610ed3908490611594565b90915550506000858152601f6020526040902054610ef1908461156a565b6001600160a01b03851660009081527f628971151cb24dee737f6abea9bff35ce226e4c8f5760305d49b372572839090602052604081208054909190610f38908490611581565b90915550506000858152601d6020908152604080832033845290915281208054859290610f66908490611581565b909155505060405183906001600160a01b0386169087907f787925e050e8cb8dba61a675397ced37ba5304fc76b70c50b62753eed7c9ef6490600090a450610355565b6000610fb361035b565b60ff16600214610fd657604051630fec256b60e31b815260040160405180910390fd5b5060408051426020808301919091526bffffffffffffffffffffffff193360601b16828401526054808301859052835180840390910181526074909201909252805191012060008054610100900460ff16900361106c5760408051828152602081018490527fa9e3f640f8d103969a480cfdc3b4deae671b0c660a9682733fb75d3d0d18924f91015b60405180910390a1919050565b7f8b8e7a803a7abf62a6d05feea279d6fbe61130791839f4614f45f7b3186852ad81600e84600381106110a1576110a16113b8565b60040201600301846002800186815481106110be576110be6113b8565b9060005260206000200160405161105f9493929190611646565b634e487b7160e01b600052604160045260246000fd5b604051601f8201601f1916810167ffffffffffffffff81118282101715611117576111176110d8565b604052919050565b600082601f83011261113057600080fd5b813567ffffffffffffffff81111561114a5761114a6110d8565b61115d601f8201601f19166020016110ee565b81815284602083860101111561117257600080fd5b816020850160208301376000918101602001919091529392505050565b60ff81168114610b0d57600080fd5b6000806000606084860312156111b357600080fd5b83359250602084013567ffffffffffffffff8111156111d157600080fd5b6111dd8682870161111f565b92505060408401356111ee8161118f565b809150509250925092565b6000806040838503121561120c57600080fd5b8235915060208084013567ffffffffffffffff8082111561122c57600080fd5b818601915086601f83011261124057600080fd5b813581811115611252576112526110d8565b8060051b6112618582016110ee565b918252838101850191858101908a84111561127b57600080fd5b86860192505b838310156112b7578235858111156112995760008081fd5b6112a78c89838a010161111f565b8352509186019190860190611281565b809750505050505050509250929050565b80356001600160a01b0381168114610a0a57600080fd5b600080604083850312156112f257600080fd5b6112fb836112c8565b946020939093013593505050565b6000806040838503121561131c57600080fd5b50508035926020909101359150565b60006020828403121561133d57600080fd5b5035919050565b60006020828403121561135657600080fd5b81356113618161118f565b9392505050565b60006020828403121561137a57600080fd5b611361826112c8565b60008060006060848603121561139857600080fd5b833592506113a8602085016112c8565b9150604084013590509250925092565b634e487b7160e01b600052603260045260246000fd5b600181811c908216806113e257607f821691505b60208210810361140257634e487b7160e01b600052602260045260246000fd5b50919050565b601f821115610793576000816000526020600020601f850160051c810160208610156114315750805b601f850160051c820191505b818110156114505782815560010161143d565b505050505050565b815167ffffffffffffffff811115611472576114726110d8565b6114868161148084546113ce565b84611408565b602080601f8311600181146114bb57600084156114a35750858301515b600019600386901b1c1916600185901b178555611450565b600085815260208120601f198616915b828110156114ea578886015182559484019460019091019084016114cb565b50858210156115085787850151600019600388901b60f8161c191681555b5050505050600190811b01905550565b60006020828403121561152a57600080fd5b81516113618161118f565b634e487b7160e01b600052601160045260246000fd5b600060ff821660ff810361156157611561611535565b60010192915050565b80820281158282048414176107bc576107bc611535565b808201808211156107bc576107bc611535565b818103818111156107bc576107bc611535565b6000826115c457634e487b7160e01b600052601260045260246000fd5b500690565b600081546115d6816113ce565b8085526020600183811680156115f3576001811461160d5761163b565b60ff1985168884015283151560051b88018301955061163b565b866000528260002060005b858110156116335781548a8201860152908301908401611618565b890184019650505b505050505092915050565b84815260806020820152600061165f60808301866115c9565b846040840152828103606084015261167781856115c9565b97965050505050505056fea2646970667358221220074d06a9a96afb48c05ca32219a2a6447ca2b2012a148d6aeb5444934354836064736f6c63430008180033","linkReferences":{}},"methodIdentifiers":{"availableBalanceOf(address,uint256)":"511cd8cf","buyToken(uint256,address,uint256)":"f3e62640","decideRandomEvent(uint256)":"80679c4d","enterGame()":"218bd577","firstFulfillment(bytes32,string[])":"26f789a2","fulfillRequest(bytes32,string,uint8)":"125c4f65","getNetWealth(address)":"dc7b3055","getPlayer(uint256)":"e55ae4e8","getPlayerResponse()":"8575ec88","getState()":"1865c57d","getTokenPrice(uint256)":"c457fb37","listToken(uint256,uint256)":"75c1631d","listedBalanceOf(address,uint256)":"5ebb6365","s_players(uint256)":"ae771f6b","setPlayerResponse(uint8)":"a9438abc","unlistToken(uint256,uint256)":"922a2118"},"id":47}