{"abi":[{"type":"constructor","inputs":[{"name":"gameCreator","type":"address","internalType":"address"}],"stateMutability":"payable"},{"type":"function","name":"availableBalanceOf","inputs":[{"name":"account","type":"address","internalType":"address"},{"name":"id","type":"uint256","internalType":"uint256"}],"outputs":[{"name":"","type":"uint256","internalType":"uint256"}],"stateMutability":"view"},{"type":"function","name":"buyToken","inputs":[{"name":"id","type":"uint256","internalType":"uint256"},{"name":"seller","type":"address","internalType":"address"},{"name":"amount","type":"uint256","internalType":"uint256"}],"outputs":[],"stateMutability":"nonpayable"},{"type":"function","name":"decideRandomEvent","inputs":[{"name":"randomWord","type":"uint256","internalType":"uint256"}],"outputs":[],"stateMutability":"nonpayable"},{"type":"function","name":"enterGame","inputs":[],"outputs":[],"stateMutability":"payable"},{"type":"function","name":"firstFulfillment","inputs":[{"name":"response","type":"string[]","internalType":"string[]"}],"outputs":[],"stateMutability":"nonpayable"},{"type":"function","name":"fuilfillRandom","inputs":[{"name":"price","type":"uint256","internalType":"uint256"}],"outputs":[],"stateMutability":"nonpayable"},{"type":"function","name":"fulfillForecast","inputs":[{"name":"newPrice","type":"uint256[]","internalType":"uint256[]"}],"outputs":[],"stateMutability":"nonpayable"},{"type":"function","name":"fulfillRequest","inputs":[{"name":"response","type":"string","internalType":"string"},{"name":"player_index","type":"uint8","internalType":"uint8"}],"outputs":[],"stateMutability":"nonpayable"},{"type":"function","name":"getNetWealth","inputs":[{"name":"account","type":"address","internalType":"address"}],"outputs":[{"name":"","type":"uint256","internalType":"uint256"}],"stateMutability":"view"},{"type":"function","name":"getPlayer","inputs":[{"name":"index","type":"uint256","internalType":"uint256"}],"outputs":[{"name":"","type":"address","internalType":"address"}],"stateMutability":"view"},{"type":"function","name":"getPlayerResponse","inputs":[],"outputs":[],"stateMutability":"nonpayable"},{"type":"function","name":"getState","inputs":[],"outputs":[{"name":"","type":"uint8","internalType":"uint8"}],"stateMutability":"nonpayable"},{"type":"function","name":"getTokenPrice","inputs":[{"name":"id","type":"uint256","internalType":"uint256"}],"outputs":[{"name":"","type":"uint256","internalType":"uint256"}],"stateMutability":"view"},{"type":"function","name":"listToken","inputs":[{"name":"id","type":"uint256","internalType":"uint256"},{"name":"amount","type":"uint256","internalType":"uint256"}],"outputs":[],"stateMutability":"nonpayable"},{"type":"function","name":"listedBalanceOf","inputs":[{"name":"account","type":"address","internalType":"address"},{"name":"id","type":"uint256","internalType":"uint256"}],"outputs":[{"name":"","type":"uint256","internalType":"uint256"}],"stateMutability":"view"},{"type":"function","name":"s_players","inputs":[{"name":"","type":"uint256","internalType":"uint256"}],"outputs":[{"name":"","type":"address","internalType":"address"}],"stateMutability":"view"},{"type":"function","name":"setPlayerResponse","inputs":[{"name":"choice","type":"uint8","internalType":"uint8"}],"outputs":[],"stateMutability":"nonpayable"},{"type":"function","name":"unlistToken","inputs":[{"name":"id","type":"uint256","internalType":"uint256"},{"name":"amount","type":"uint256","internalType":"uint256"}],"outputs":[],"stateMutability":"nonpayable"},{"type":"event","name":"FirstRequest","inputs":[{"name":"requestId","type":"bytes32","indexed":false,"internalType":"bytes32"},{"name":"player_index","type":"uint256","indexed":false,"internalType":"uint256"}],"anonymous":false},{"type":"event","name":"GameJoined","inputs":[{"name":"player","type":"address","indexed":false,"internalType":"address"}],"anonymous":false},{"type":"event","name":"PlayerResponded","inputs":[{"name":"player","type":"address","indexed":false,"internalType":"address"},{"name":"choice","type":"uint8","indexed":false,"internalType":"uint8"}],"anonymous":false},{"type":"event","name":"RandomRequest","inputs":[{"name":"randomEvent","type":"string","indexed":false,"internalType":"string"},{"name":"prince","type":"uint256","indexed":false,"internalType":"uint256"}],"anonymous":false},{"type":"event","name":"RequestForecast","inputs":[{"name":"price","type":"uint256[]","indexed":false,"internalType":"uint256[]"},{"name":"player_1","type":"uint256[]","indexed":false,"internalType":"uint256[]"},{"name":"player_2","type":"uint256[]","indexed":false,"internalType":"uint256[]"},{"name":"player_3","type":"uint256[]","indexed":false,"internalType":"uint256[]"}],"anonymous":false},{"type":"event","name":"RequestOption","inputs":[{"name":"requestId","type":"bytes32","indexed":false,"internalType":"bytes32"},{"name":"playerTopic","type":"string","indexed":false,"internalType":"string"},{"name":"player_index","type":"uint256","indexed":false,"internalType":"uint256"},{"name":"option","type":"string","indexed":false,"internalType":"string"}],"anonymous":false},{"type":"event","name":"SendEmail","inputs":[{"name":"events","type":"string[]","indexed":false,"internalType":"string[]"}],"anonymous":false},{"type":"event","name":"SendMsg","inputs":[{"name":"suggention","type":"string[]","indexed":false,"internalType":"string[]"}],"anonymous":false},{"type":"event","name":"SendNews","inputs":[{"name":"news","type":"string[]","indexed":false,"internalType":"string[]"}],"anonymous":false},{"type":"event","name":"TokenBought","inputs":[{"name":"id","type":"uint256","indexed":true,"internalType":"uint256"},{"name":"seller","type":"address","indexed":true,"internalType":"address"},{"name":"amount","type":"uint256","indexed":true,"internalType":"uint256"}],"anonymous":false},{"type":"event","name":"TokenListed","inputs":[{"name":"id","type":"uint256","indexed":true,"internalType":"uint256"},{"name":"player","type":"address","indexed":true,"internalType":"address"},{"name":"amount","type":"uint256","indexed":true,"internalType":"uint256"}],"anonymous":false},{"type":"event","name":"TokenUnlisted","inputs":[{"name":"id","type":"uint256","indexed":true,"internalType":"uint256"},{"name":"player","type":"address","indexed":true,"internalType":"address"},{"name":"amount","type":"uint256","indexed":true,"internalType":"uint256"}],"anonymous":false},{"type":"error","name":"AI_responseFail","inputs":[]},{"type":"error","name":"CallerNotGamePlayer","inputs":[{"name":"caller","type":"address","internalType":"address"}]},{"type":"error","name":"CallerNotUpperControl","inputs":[{"name":"caller","type":"address","internalType":"address"},{"name":"upperControl","type":"address","internalType":"address"}]},{"type":"error","name":"GameNotInProgressState","inputs":[]},{"type":"error","name":"GameNotInWaitingState","inputs":[]},{"type":"error","name":"NotEnoughBalance","inputs":[{"name":"id","type":"uint256","internalType":"uint256"},{"name":"amount","type":"uint256","internalType":"uint256"},{"name":"balance","type":"uint256","internalType":"uint256"}]},{"type":"error","name":"NotEnoughListedBalance","inputs":[{"name":"id","type":"uint256","internalType":"uint256"},{"name":"amount","type":"uint256","internalType":"uint256"},{"name":"sellerListedBalance","type":"uint256","internalType":"uint256"}]},{"type":"error","name":"ParicipantDuplicated","inputs":[{"name":"player","type":"address","internalType":"address"}]},{"type":"error","name":"ParticipantFull","inputs":[]},{"type":"error","name":"WrongFeeAmount","inputs":[]}],"bytecode":{"object":"0x6000805461ffff191681556001556101a0604052604461012081815260a0918291906200278a6101403981526020016040518060800160405280605d815260200162002836605d91398152602001604051806060016040528060328152602001620027ce603291398152602001604051806060016040528060368152602001620028006036913990526200009890601e9060046200018e565b506040516200289338038062002893833981016040819052620000bb9162000265565b336080526000548190600a9060ff1660038110620000dd57620000dd62000297565b0180546001600160a01b0319166001600160a01b03928316179055811660008181527f1ae1eab41a4db68d73559dd6c8b7ac16a4bc819634768486d35edbff05543abf602090815260408083206127109055825460ff90811684528280528184209484529382528083206103e8905582548416835260229091528120606490558054909182916200016f9116620002ad565b91906101000a81548160ff021916908360ff160217905550506200044e565b828054828255906000526020600020908101928215620001d9579160200282015b82811115620001d95782518290620001c8908262000382565b5091602001919060010190620001af565b50620001e7929150620001eb565b5090565b80821115620001e75760006200020282826200020c565b50600101620001eb565b5080546200021a90620002f1565b6000825580601f106200022b575050565b601f0160209004906000526020600020908101906200024b91906200024e565b50565b5b80821115620001e757600081556001016200024f565b6000602082840312156200027857600080fd5b81516001600160a01b03811681146200029057600080fd5b9392505050565b634e487b7160e01b600052603260045260246000fd5b600060ff821660ff8103620002d257634e487b7160e01b600052601160045260246000fd5b60010192915050565b634e487b7160e01b600052604160045260246000fd5b600181811c908216806200030657607f821691505b6020821081036200032757634e487b7160e01b600052602260045260246000fd5b50919050565b601f8211156200037d576000816000526020600020601f850160051c81016020861015620003585750805b601f850160051c820191505b81811015620003795782815560010162000364565b5050505b505050565b81516001600160401b038111156200039e576200039e620002db565b620003b681620003af8454620002f1565b846200032d565b602080601f831160018114620003ee5760008415620003d55750858301515b600019600386901b1c1916600185901b17855562000379565b600085815260208120601f198616915b828110156200041f57888601518255948401946001909101908401620003fe565b50858210156200043e5787850151600019600388901b60f8161c191681555b5050505050600190811b01905550565b6080516122d3620004b760003960008181610370015281816105f601528181610668015281816106aa015281816107a2015281816107e4015281816109d901528181610a1b01528181610bc301528181610c0501528181611424015261172901526122d36000f3fe6080604052600436106101095760003560e01c80638fad89f411610095578063ae771f6b11610064578063ae771f6b146102a7578063c457fb37146102df578063dc7b30551461030c578063e55ae4e81461032c578063f3e626401461034c57600080fd5b80638fad89f414610227578063922a2118146102475780639be955e614610267578063a9438abc1461028757600080fd5b80635ebb6365116100dc5780635ebb636514610192578063747bd241146101b257806375c1631d146101d257806380679c4d146101f25780638575ec881461021257600080fd5b80631865c57d1461010e578063218bd5771461013a57806334dcca0f14610144578063511cd8cf14610164575b600080fd5b34801561011a57600080fd5b5061012361036c565b60405160ff90911681526020015b60405180910390f35b6101426103f7565b005b34801561015057600080fd5b5061014261015f3660046119fe565b61065d565b34801561017057600080fd5b5061018461017f366004611aab565b610748565b604051908152602001610131565b34801561019e57600080fd5b506101846101ad366004611aab565b610770565b3480156101be57600080fd5b506101426101cd366004611b54565b610797565b3480156101de57600080fd5b506101426101ed366004611ba6565b610870565b3480156101fe57600080fd5b5061014261020d366004611bc8565b6109ce565b34801561021e57600080fd5b50610142610b8d565b34801561023357600080fd5b50610142610242366004611be1565b610c8a565b34801561025357600080fd5b50610142610262366004611ba6565b610db2565b34801561027357600080fd5b50610142610282366004611bc8565b610ef5565b34801561029357600080fd5b506101426102a2366004611c92565b610f70565b3480156102b357600080fd5b506102c76102c2366004611bc8565b611038565b6040516001600160a01b039091168152602001610131565b3480156102eb57600080fd5b506101846102fa366004611bc8565b60009081526022602052604090205490565b34801561031857600080fd5b50610184610327366004611caf565b611058565b34801561033857600080fd5b506102c7610347366004611bc8565b6110e3565b34801561035857600080fd5b50610142610367366004611cca565b611109565b60007f00000000000000000000000000000000000000000000000000000000000000006001600160a01b031663b7d0628b6040518163ffffffff1660e01b81526004016020604051808303816000875af11580156103ce573d6000803e3d6000fd5b505050506040513d601f19601f820116820180604052508101906103f29190611cff565b905090565b60005b60005460ff908116908216101561045a5733600a60ff83166003811061042257610422611d1c565b01546001600160a01b03160361045257604051637b811e5b60e01b81523360048201526024015b60405180910390fd5b6001016103fa565b50662386f26fc10000341461048257604051636bae82db60e11b815260040160405180910390fd5b600054600360ff909116106104aa5760405163e98beec560e01b815260040160405180910390fd5b6104b261036c565b60ff166001146104d557604051631afef96760e31b815260040160405180910390fd5b6000543390600a9060ff16600381106104f0576104f0611d1c565b0180546001600160a01b0319166001600160a01b03929092169190911790553360008181527f1ae1eab41a4db68d73559dd6c8b7ac16a4bc819634768486d35edbff05543abf602090815260408083206127109055825460ff90811684528280528184209484529382528083206103e8905582548416835260229091528120606490558054909182916105839116611d48565b825460ff9182166101009390930a92830291909202199091161790556040513381527fd196f2977fe2b8b63f631a98b5e5967845e4fcf00f48ced5587cafe76122ea9c9060200160405180910390a160005460ff166002190161065b57604051636dd047f360e01b8152600260048201527f00000000000000000000000000000000000000000000000000000000000000006001600160a01b031690636dd047f390602401600060405180830381600087803b15801561064257600080fd5b505af1158015610656573d6000803e3d6000fd5b505050505b565b336001600160a01b037f000000000000000000000000000000000000000000000000000000000000000016146106d75760405163eceacbd560e01b81523360048201526001600160a01b037f0000000000000000000000000000000000000000000000000000000000000000166024820152604401610449565b6106df61036c565b60ff1660021461070257604051630fec256b60e31b815260040160405180910390fd5b60005b60038110156107445781818151811061072057610720611d1c565b60209081029190910181015160008381526022909252604090912055600101610705565b5050565b6000818152602080805260408083206001600160a01b03861684529091529020545b92915050565b60009081526021602090815260408083206001600160a01b03949094168352929052205490565b336001600160a01b037f000000000000000000000000000000000000000000000000000000000000000016146108115760405163eceacbd560e01b81523360048201526001600160a01b037f0000000000000000000000000000000000000000000000000000000000000000166024820152604401610449565b61081961036c565b60ff1660021461083c57604051630fec256b60e31b815260040160405180910390fd5b81600280018260ff168154811061085557610855611d1c565b90600052602060002001908161086b9190611df1565b505050565b6000805b60038110156108b25733600a826003811061089157610891611d1c565b01546001600160a01b0316036108aa57600191506108b2565b600101610874565b5080156109b3576108c161036c565b60ff166002146108e457604051630fec256b60e31b815260040160405180910390fd5b60006108f03385610748565b9050828110156109245760405163a484ed0f60e01b8152600481018590526024810184905260448101829052606401610449565b60008481526021602090815260408083203384529091528120805485929061094d908490611eb1565b909155505060008481526020808052604080832033845290915281208054859290610979908490611ec4565b90915550506040518390339086907f7765a1c07bdce3390c521eaeb86030b188b77cbaba2d76bd7c9c32d906bfbcba90600090a450505050565b60405163f5665c0b60e01b8152336004820152602401610449565b336001600160a01b037f00000000000000000000000000000000000000000000000000000000000000001614610a485760405163eceacbd560e01b81523360048201526001600160a01b037f0000000000000000000000000000000000000000000000000000000000000000166024820152604401610449565b610a5061036c565b60ff16600214610a7357604051630fec256b60e31b815260040160405180910390fd5b6000610a80600383611eed565b905060005b6003811015610b1e576003805482908110610aa257610aa2611d1c565b90600052602060002001601e8381548110610abf57610abf611d1c565b90600052602060002001604051602001610ada929190611f74565b60405160208183030381529060405260026001018281548110610aff57610aff611d1c565b906000526020600020019081610b159190611df1565b50600101610a85565b507fdc13056785db249fc4d07b5668a5e8e6ef95f4295734cb77716a9e8c41666dd8601e8281548110610b5357610b53611d1c565b90600052602060002001610b738360009081526022602052604090205490565b604051610b8192919061200e565b60405180910390a15050565b610b9561036c565b60ff16600214610bb857604051630fec256b60e31b815260040160405180910390fd5b336001600160a01b037f00000000000000000000000000000000000000000000000000000000000000001614610c325760405163eceacbd560e01b81523360048201526001600160a01b037f0000000000000000000000000000000000000000000000000000000000000000166024820152604401610449565b60005b6003811015610c5057610c47816112c3565b50600101610c35565b50600054610c6890600390610100900460ff16612030565b60ff16600003610c7a57610c7a6113f7565b610c826114a9565b61065b611641565b60005b60038110156107445781610ca2826003612052565b81518110610cb257610cb2611d1c565b602002602001015160026000018281548110610cd057610cd0611d1c565b906000526020600020019081610ce69190611df1565b5081610cf3826003612052565b610cfe906001611eb1565b81518110610d0e57610d0e611d1c565b602002602001015160026001018281548110610d2c57610d2c611d1c565b906000526020600020019081610d429190611df1565b5081610d4f826003612052565b610d5a906002611eb1565b81518110610d6a57610d6a611d1c565b602002602001015160026003018281548110610d8857610d88611d1c565b906000526020600020019081610d9e9190611df1565b50600101610dab81612069565b9050610c8d565b6000805b6003811015610df45733600a8260038110610dd357610dd3611d1c565b01546001600160a01b031603610dec5760019150610df4565b600101610db6565b5080156109b357610e0361036c565b60ff16600214610e2657604051630fec256b60e31b815260040160405180910390fd5b6000610e323385610770565b905082811015610e66576040516367b75ab560e01b8152600481018590526024810184905260448101829052606401610449565b600084815260216020908152604080832033845290915281208054859290610e8f908490611ec4565b909155505060008481526020808052604080832033845290915281208054859290610ebb908490611eb1565b90915550506040518390339086907f16a4cf4c8063831dff6354ec352b7d70902de559371b4c578fa72e3c754a2d1790600090a450505050565b610efd61036c565b60ff16600214610f2057604051630fec256b60e31b815260040160405180910390fd5b60005b600381101561074457600081815260226020526040902054610f459083611eed565b60008281526022602052604081208054909190610f63908490611eb1565b9091555050600101610f23565b6000805b6003811015610fb25733600a8260038110610f9157610f91611d1c565b01546001600160a01b031603610faa5760019150610fb2565b600101610f74565b5080156109b357610fc161036c565b60ff16600214610fe457604051630fec256b60e31b815260040160405180910390fd5b336000818152601f6020908152604091829020805460ff191660ff87169081179091558251938452908301527f8684a5861ae8ac05e20450002c4db07118cb5cb1d412a0ff78c2685b13964f189101610b81565b600a816003811061104857600080fd5b01546001600160a01b0316905081565b600080805b60038110156110b15760008181526022602052604090205461107f8583610770565b6110898684610748565b6110939190611eb1565b61109d9190612052565b6110a79083611eb1565b915060010161105d565b506110bd836003610770565b6110c8846003610748565b6110d29190611eb1565b6110dc9082611eb1565b9392505050565b6000600a82600381106110f8576110f8611d1c565b01546001600160a01b031692915050565b6000805b600381101561114b5733600a826003811061112a5761112a611d1c565b01546001600160a01b031603611143576001915061114b565b60010161110d565b5080156109b35761115a61036c565b60ff1660021461117d57604051630fec256b60e31b815260040160405180910390fd5b60006111898486610770565b9050828110156111bd576040516367b75ab560e01b8152600481018690526024810184905260448101829052606401610449565b60008581526021602090815260408083206001600160a01b0388168452909152812080548592906111ef908490611ec4565b909155505060008581526022602052604090205461120d9084612052565b6001600160a01b03851660009081527f1ae1eab41a4db68d73559dd6c8b7ac16a4bc819634768486d35edbff05543abf602052604081208054909190611254908490611eb1565b909155505060008581526020808052604080832033845290915281208054859290611280908490611eb1565b909155505060405183906001600160a01b0386169087907f787925e050e8cb8dba61a675397ced37ba5304fc76b70c50b62753eed7c9ef6490600090a450610656565b60006112cd61036c565b60ff166002146112f057604051630fec256b60e31b815260040160405180910390fd5b5060408051426020808301919091526bffffffffffffffffffffffff193360601b16828401526054808301859052835180840390910181526074909201909252805191012060008054610100900460ff1690036113865760408051828152602081018490527fa9e3f640f8d103969a480cfdc3b4deae671b0c660a9682733fb75d3d0d18924f91015b60405180910390a1919050565b7f8b8e7a803a7abf62a6d05feea279d6fbe61130791839f4614f45f7b3186852ad81600d84600381106113bb576113bb611d1c565b60050201600401846002800186815481106113d8576113d8611d1c565b906000526020600020016040516113799493929190612082565b919050565b6113ff61036c565b60ff1660021461142257604051630fec256b60e31b815260040160405180910390fd5b7f00000000000000000000000000000000000000000000000000000000000000006001600160a01b0316630a01fb9e6040518163ffffffff1660e01b81526004016020604051808303816000875af1158015611482573d6000803e3d6000fd5b505050506040513d601f19601f820116820180604052508101906114a691906120b3565b50565b6114b161036c565b60ff166002146114d457604051630fec256b60e31b815260040160405180910390fd5b6114e0601c6000611876565b6114ec601d6000611894565b60005b60038110156115a957600081815260226020526040812054601d80546001810182559083527f6d4407e7be21f808e6509aa9fa9143369579dd7d760fe20a2c09680fc146134f01555b60038110156115a057601c828154811061155457611554611d1c565b90600052602060002001611585600a846003811061157457611574611d1c565b01546001600160a01b031683610770565b81546001818101845560009384526020909320015501611538565b506001016114ef565b507f9db24e8589fa2d6fcc91f7d7005b4c46c4d2aaa2ccb7357dad7634e40e91e307601d601c6000815481106115e1576115e1611d1c565b90600052602060002001601c6001815481106115ff576115ff611d1c565b90600052602060002001601c60028154811061161d5761161d611d1c565b90600052602060002001604051611637949392919061210d565b60405180910390a1565b61164961036c565b60ff1660021461166c57604051630fec256b60e31b815260040160405180910390fd5b61167461168c565b61167c6116e9565b6116846117be565b61065b61181a565b61169461036c565b60ff166002146116b757604051630fec256b60e31b815260040160405180910390fd5b600380546116c7916007916118b2565b50600580546116d8916008916118b2565b50600480546114a6916009916118b2565b6116f161036c565b60ff1660021461171457604051630fec256b60e31b815260040160405180910390fd5b60405163b976bd1760e01b81524260048201527f00000000000000000000000000000000000000000000000000000000000000006001600160a01b03169063b976bd1790602401600060405180830381600087803b15801561177557600080fd5b505af1158015611789573d6000803e3d6000fd5b50506040517fdba47677e6c2fb41724400c88a900a09137365e2261db2f4c0a76057769b86169250611637915060079061215a565b6117c661036c565b60ff166002146117e957604051630fec256b60e31b815260040160405180910390fd5b6040517f98401b5889a21d5bf27b9c9b441fbd1a159d5f26091a2938f1b026e5d75fd3c7906116379060099061215a565b61182261036c565b60ff1660021461184557604051630fec256b60e31b815260040160405180910390fd5b6040517f39d24295ba4a6bcc4a392f067f557a5da65dfd3ac8f6039c030cb78438ff4e75906116379060089061215a565b50805460008255906000526020600020908101906114a6919061190a565b50805460008255906000526020600020908101906114a69190611927565b8280548282559060005260206000209081019282156118fa5760005260206000209182015b828111156118fa57816118ea84826121c2565b50916001019190600101906118d7565b5061190692915061193c565b5090565b8082111561190657600061191e8282611894565b5060010161190a565b5b808211156119065760008155600101611928565b808211156119065760006119508282611959565b5060010161193c565b50805461196590611d67565b6000825580601f10611975575050565b601f0160209004906000526020600020908101906114a69190611927565b634e487b7160e01b600052604160045260246000fd5b604051601f8201601f1916810167ffffffffffffffff811182821017156119d2576119d2611993565b604052919050565b600067ffffffffffffffff8211156119f4576119f4611993565b5060051b60200190565b60006020808385031215611a1157600080fd5b823567ffffffffffffffff811115611a2857600080fd5b8301601f81018513611a3957600080fd5b8035611a4c611a47826119da565b6119a9565b81815260059190911b82018301908381019087831115611a6b57600080fd5b928401925b82841015611a8957833582529284019290840190611a70565b979650505050505050565b80356001600160a01b03811681146113f257600080fd5b60008060408385031215611abe57600080fd5b611ac783611a94565b946020939093013593505050565b600082601f830112611ae657600080fd5b813567ffffffffffffffff811115611b0057611b00611993565b611b13601f8201601f19166020016119a9565b818152846020838601011115611b2857600080fd5b816020850160208301376000918101602001919091529392505050565b60ff811681146114a657600080fd5b60008060408385031215611b6757600080fd5b823567ffffffffffffffff811115611b7e57600080fd5b611b8a85828601611ad5565b9250506020830135611b9b81611b45565b809150509250929050565b60008060408385031215611bb957600080fd5b50508035926020909101359150565b600060208284031215611bda57600080fd5b5035919050565b60006020808385031215611bf457600080fd5b823567ffffffffffffffff80821115611c0c57600080fd5b818501915085601f830112611c2057600080fd5b8135611c2e611a47826119da565b81815260059190911b83018401908481019088831115611c4d57600080fd5b8585015b83811015611c8557803585811115611c695760008081fd5b611c778b89838a0101611ad5565b845250918601918601611c51565b5098975050505050505050565b600060208284031215611ca457600080fd5b81356110dc81611b45565b600060208284031215611cc157600080fd5b6110dc82611a94565b600080600060608486031215611cdf57600080fd5b83359250611cef60208501611a94565b9150604084013590509250925092565b600060208284031215611d1157600080fd5b81516110dc81611b45565b634e487b7160e01b600052603260045260246000fd5b634e487b7160e01b600052601160045260246000fd5b600060ff821660ff8103611d5e57611d5e611d32565b60010192915050565b600181811c90821680611d7b57607f821691505b602082108103611d9b57634e487b7160e01b600052602260045260246000fd5b50919050565b601f82111561086b576000816000526020600020601f850160051c81016020861015611dca5750805b601f850160051c820191505b81811015611de957828155600101611dd6565b505050505050565b815167ffffffffffffffff811115611e0b57611e0b611993565b611e1f81611e198454611d67565b84611da1565b602080601f831160018114611e545760008415611e3c5750858301515b600019600386901b1c1916600185901b178555611de9565b600085815260208120601f198616915b82811015611e8357888601518255948401946001909101908401611e64565b5085821015611ea15787850151600019600388901b60f8161c191681555b5050505050600190811b01905550565b8082018082111561076a5761076a611d32565b8181038181111561076a5761076a611d32565b634e487b7160e01b600052601260045260246000fd5b600082611efc57611efc611ed7565b500690565b60008154611f0e81611d67565b60018281168015611f265760018114611f3b57611f6a565b60ff1984168752821515830287019450611f6a565b8560005260208060002060005b85811015611f615781548a820152908401908201611f48565b50505082870194505b5050505092915050565b6000611f89611f838386611f01565b84611f01565b949350505050565b60008154611f9e81611d67565b808552602060018381168015611fbb5760018114611fd557612003565b60ff1985168884015283151560051b880183019550612003565b866000528260002060005b85811015611ffb5781548a8201860152908301908401611fe0565b890184019650505b505050505092915050565b6040815260006120216040830185611f91565b90508260208301529392505050565b600060ff83168061204357612043611ed7565b8060ff84160691505092915050565b808202811582820484141761076a5761076a611d32565b60006001820161207b5761207b611d32565b5060010190565b84815260806020820152600061209b6080830186611f91565b8460408401528281036060840152611a898185611f91565b6000602082840312156120c557600080fd5b5051919050565b600081548084526020808501945083600052602060002060005b83811015612102578154875295820195600191820191016120e6565b509495945050505050565b60808152600061212060808301876120cc565b828103602084015261213281876120cc565b9050828103604084015261214681866120cc565b90508281036060840152611a8981856120cc565b600060208083016020845280855480835260408601915060408160051b870101925086600052602060002060005b828110156121b557878503603f190184526121a38583611f91565b94509285019260019182019101612188565b5092979650505050505050565b8181036121cd575050565b6121d78254611d67565b67ffffffffffffffff8111156121ef576121ef611993565b6121fd81611e198454611d67565b6000601f82116001811461223157600083156122195750848201545b600019600385901b1c1916600184901b178455612296565b600085815260209020601f19841690600086815260209020845b8381101561226b578286015482556001958601959091019060200161224b565b50858310156122895781850154600019600388901b60f8161c191681555b50505060018360011b0184555b505050505056fea2646970667358221220598ad4cecc43c771d982a4e2c255422d823ca9960c20a54d6bb4081165e184b064736f6c634300081800334d616a6f7220616476616e63656d656e747320696e20626c6f636b636861696e20746563686e6f6c6f6779206c65616420746f20707269636520696e637265617365732e7468652065786368616e67657320617265206861636b65642c207072696365732074656e6420746f2064656372656173652e476c6f62616c2065636f6e6f6d696320696e73746162696c697479206361757365732070726963657320746f2064656372656173652e54686520617070726f76616c2062792074686520552e532e205365637572697469657320616e642045786368616e676520436f6d6d697373696f6e20285345432920726573756c747320696e20707269636520696e637265617365732e","linkReferences":{}},"methodIdentifiers":{"availableBalanceOf(address,uint256)":"511cd8cf","buyToken(uint256,address,uint256)":"f3e62640","decideRandomEvent(uint256)":"80679c4d","enterGame()":"218bd577","firstFulfillment(string[])":"8fad89f4","fuilfillRandom(uint256)":"9be955e6","fulfillForecast(uint256[])":"34dcca0f","fulfillRequest(string,uint8)":"747bd241","getNetWealth(address)":"dc7b3055","getPlayer(uint256)":"e55ae4e8","getPlayerResponse()":"8575ec88","getState()":"1865c57d","getTokenPrice(uint256)":"c457fb37","listToken(uint256,uint256)":"75c1631d","listedBalanceOf(address,uint256)":"5ebb6365","s_players(uint256)":"ae771f6b","setPlayerResponse(uint8)":"a9438abc","unlistToken(uint256,uint256)":"922a2118"},"id":40}