{"abi":[{"type":"constructor","inputs":[{"name":"subscriptionId","type":"uint64","internalType":"uint64"},{"name":"gasLane","type":"bytes32","internalType":"bytes32"},{"name":"callbackGasLimit","type":"uint32","internalType":"uint32"},{"name":"vrfCoordinator","type":"address","internalType":"address"}],"stateMutability":"nonpayable"},{"type":"function","name":"createGame","inputs":[],"outputs":[{"name":"","type":"address","internalType":"address"}],"stateMutability":"payable"},{"type":"function","name":"endGame","inputs":[],"outputs":[],"stateMutability":"nonpayable"},{"type":"function","name":"getGameState","inputs":[],"outputs":[{"name":"","type":"uint8","internalType":"enum UpperControl.GameState"}],"stateMutability":"view"},{"type":"function","name":"rawFulfillRandomWords","inputs":[{"name":"requestId","type":"uint256","internalType":"uint256"},{"name":"randomWords","type":"uint256[]","internalType":"uint256[]"}],"outputs":[],"stateMutability":"nonpayable"},{"type":"function","name":"requestRandomWords","inputs":[],"outputs":[{"name":"requestId","type":"uint256","internalType":"uint256"}],"stateMutability":"nonpayable"},{"type":"function","name":"s_gamesState","inputs":[{"name":"","type":"address","internalType":"address"}],"outputs":[{"name":"","type":"uint8","internalType":"enum UpperControl.GameState"}],"stateMutability":"view"},{"type":"function","name":"s_requestIdToGameAddress","inputs":[{"name":"","type":"uint256","internalType":"uint256"}],"outputs":[{"name":"","type":"address","internalType":"address"}],"stateMutability":"view"},{"type":"function","name":"setGameState","inputs":[{"name":"gameState","type":"uint8","internalType":"uint8"}],"outputs":[],"stateMutability":"nonpayable"},{"type":"event","name":"GameCreated","inputs":[{"name":"gameAddress","type":"address","indexed":true,"internalType":"address"}],"anonymous":false},{"type":"event","name":"GameFinished","inputs":[{"name":"gameAddr","type":"address","indexed":true,"internalType":"address"}],"anonymous":false},{"type":"event","name":"RequestFulfilled","inputs":[{"name":"requestId","type":"uint256","indexed":true,"internalType":"uint256"},{"name":"randomWords","type":"uint256[]","indexed":true,"internalType":"uint256[]"}],"anonymous":false},{"type":"event","name":"RequestSent","inputs":[{"name":"requestId","type":"uint256","indexed":true,"internalType":"uint256"},{"name":"s_numWords","type":"uint32","indexed":true,"internalType":"uint32"}],"anonymous":false},{"type":"event","name":"StateChange","inputs":[{"name":"prev","type":"uint8","indexed":true,"internalType":"enum UpperControl.GameState"},{"name":"curr","type":"uint8","indexed":true,"internalType":"enum UpperControl.GameState"}],"anonymous":false},{"type":"error","name":"CallerNotGameContract","inputs":[]},{"type":"error","name":"GameNotInProgress","inputs":[{"name":"state","type":"uint8","internalType":"enum UpperControl.GameState"}]},{"type":"error","name":"OnlyCoordinatorCanFulfill","inputs":[{"name":"have","type":"address","internalType":"address"},{"name":"want","type":"address","internalType":"address"}]}],"bytecode":{"object":"0x6101206040526000805463ffffffff1916600117905534801561002157600080fd5b5060405161133238038061133283398101604081905261004091610074565b6001600160a01b0316608081905260a05260c0919091526001600160401b0390911660e05263ffffffff16610100526100ea565b6000806000806080858703121561008a57600080fd5b84516001600160401b03811681146100a157600080fd5b60208601516040870151919550935063ffffffff811681146100c257600080fd5b60608601519092506001600160a01b03811681146100df57600080fd5b939692955090935050565b60805160a05160c05160e051610100516111fd610135600039600061060e015260006105db015260006105ac0152600061063e0152600081816101be015261020001526111fd6000f3fe60806040526004361061007b5760003560e01c80639609f0771161004e5780639609f077146100fc578063b7d0628b14610132578063d9c1556114610160578063e0c862891461019057600080fd5b80631fe543e3146100805780636cbc2ded146100a25780636dd047f3146100b75780637255d729146100d7575b600080fd5b34801561008c57600080fd5b506100a061009b3660046108a7565b6101b3565b005b3480156100ae57600080fd5b506100a0610240565b3480156100c357600080fd5b506100a06100d2366004610971565b61031d565b6100df61041b565b6040516001600160a01b0390911681526020015b60405180910390f35b34801561010857600080fd5b506100df61011736600461099b565b6001602052600090815260409020546001600160a01b031681565b34801561013e57600080fd5b503360009081526002602052604090205460ff165b6040516100f391906109ca565b34801561016c57600080fd5b5061015361017b3660046109f2565b60026020526000908152604090205460ff1681565b34801561019c57600080fd5b506101a5610555565b6040519081526020016100f3565b336001600160a01b037f000000000000000000000000000000000000000000000000000000000000000016146102325760405163073e64fd60e21b81523360048201526001600160a01b037f00000000000000000000000000000000000000000000000000000000000000001660248201526044015b60405180910390fd5b61023c8282610708565b5050565b3360009081526002602052604081205460ff166003811115610264576102646109b4565b036102825760405163a9acc16d60e01b815260040160405180910390fd5b60023360009081526002602052604090205460ff1660038111156102a8576102a86109b4565b146102db5733600090815260026020526040908190205490516360f4f52f60e11b81526102299160ff16906004016109ca565b33600081815260026020526040808220805460ff19166003179055517f1728dd43546edd06fabfe796e5b641a151aa90998bfd1b1ec0ae98c6e77084599190a2565b3360009081526002602052604081205460ff166003811115610341576103416109b4565b0361035f5760405163a9acc16d60e01b815260040160405180910390fd5b3360009081526002602052604090205460ff9081169082166003811115610388576103886109b4565b336000908152600260205260409020805460ff191660018360038111156103b1576103b16109b4565b02179055508160ff1660038111156103cb576103cb6109b4565b60038111156103dc576103dc6109b4565b8160038111156103ee576103ee6109b4565b6040517ffa441dfe95ea7994c16c2c9120482b6fe0888963d94853674dde4d7a7c10582790600090a35050565b6000662386f26fc10000341461046a5760405162461bcd60e51b8152602060048201526014602482015273125b98dbdc9c9958dd0819995948185b5bdd5b9d60621b6044820152606401610229565b6000662386f26fc100003360405161048190610884565b6001600160a01b0390911681526020016040518091039082f09050801580156104ae573d6000803e3d6000fd5b5090506001600160a01b0381166105075760405162461bcd60e51b815260206004820152601e60248201527f47616d6520696e7374616e6365206372656174696f6e206661696c65642e00006044820152606401610229565b6001600160a01b038116600081815260026020526040808220805460ff19166001179055517f4f0d1d413a983b9df8ab6ab954635b186a1e9a09ee6dc1b43263ddbf484122679190a2919050565b6000803360009081526002602052604090205460ff16600381111561057c5761057c6109b4565b0361059a5760405163a9acc16d60e01b815260040160405180910390fd5b6000546040516305d3b1d360e41b81527f0000000000000000000000000000000000000000000000000000000000000000600482015267ffffffffffffffff7f00000000000000000000000000000000000000000000000000000000000000001660248201526003604482015263ffffffff7f00000000000000000000000000000000000000000000000000000000000000008116606483015290911660848201527f00000000000000000000000000000000000000000000000000000000000000006001600160a01b031690635d3b1d309060a4016020604051808303816000875af115801561068f573d6000803e3d6000fd5b505050506040513d601f19601f820116820180604052508101906106b39190610a1b565b60008181526001602052604080822080546001600160a01b031916331790558154905192935063ffffffff169183917fcc58b13ad3eab50626c6a6300b1d139cd6ebb1688a7cced9461c2f7e762665ee91a390565b6000828152600160205260409020546001600160a01b0316806107625760405162461bcd60e51b8152602060048201526012602482015271125b9d985b1a59081c995c5d595cdd08125160721b6044820152606401610229565b6000816001600160a01b03166380679c4d8460008151811061078657610786610a34565b60200260200101516040518263ffffffff1660e01b81526004016107ac91815260200190565b6020604051808303816000875af11580156107cb573d6000803e3d6000fd5b505050506040513d601f19601f820116820180604052508101906107ef9190610a4a565b90508061083e5760405162461bcd60e51b815260206004820152601860248201527f72616e646f6d20776f7264732073656e74206661696c656400000000000000006044820152606401610229565b8260405161084c9190610a6c565b6040519081900381209085907ffe2e2d779dba245964d4e3ef9b994be63856fd568bf7d3ca9e224755cb1bd54d90600090a350505050565b61072580610aa383390190565b634e487b7160e01b600052604160045260246000fd5b600080604083850312156108ba57600080fd5b8235915060208084013567ffffffffffffffff808211156108da57600080fd5b818601915086601f8301126108ee57600080fd5b81358181111561090057610900610891565b8060051b604051601f19603f8301168101818110858211171561092557610925610891565b60405291825284820192508381018501918983111561094357600080fd5b938501935b8285101561096157843584529385019392850192610948565b8096505050505050509250929050565b60006020828403121561098357600080fd5b813560ff8116811461099457600080fd5b9392505050565b6000602082840312156109ad57600080fd5b5035919050565b634e487b7160e01b600052602160045260246000fd5b60208101600483106109ec57634e487b7160e01b600052602160045260246000fd5b91905290565b600060208284031215610a0457600080fd5b81356001600160a01b038116811461099457600080fd5b600060208284031215610a2d57600080fd5b5051919050565b634e487b7160e01b600052603260045260246000fd5b600060208284031215610a5c57600080fd5b8151801515811461099457600080fd5b815160009082906020808601845b83811015610a9657815185529382019390820190600101610a7a565b5092969550505050505056fe60a060408190526005805460ff1990811682556010805482169055600060115560128054909116909117905561072538819003908190833981016040819052610047916100b6565b3360805260058054829160009160ff16908110610066576100666100e6565b0180546001600160a01b0319166001600160a01b0392909216919091179055600580546000906100989060ff166100fc565b91906101000a81548160ff021916908360ff16021790555050610129565b6000602082840312156100c857600080fd5b81516001600160a01b03811681146100df57600080fd5b9392505050565b634e487b7160e01b600052603260045260246000fd5b600060ff821660ff810361012057634e487b7160e01b600052601160045260246000fd5b60010192915050565b6080516105cc6101596000396000818161011101528181610358015281816103f5015261043701526105cc6000f3fe60806040526004361061004a5760003560e01c80631865c57d1461004f5780631b9db2ef1461007b578063218bd577146100b357806380679c4d146100bd578063ae771f6b146100ed575b600080fd5b34801561005b57600080fd5b5061006461010d565b60405160ff90911681526020015b60405180910390f35b34801561008757600080fd5b5061009b6100963660046104cd565b610198565b6040516001600160a01b039091168152602001610072565b6100bb6101bd565b005b3480156100c957600080fd5b506100dd6100d83660046104cd565b6103e8565b6040519015158152602001610072565b3480156100f957600080fd5b5061009b6101083660046104cd565b6104ad565b60007f00000000000000000000000000000000000000000000000000000000000000006001600160a01b031663b7d0628b6040518163ffffffff1660e01b81526004016020604051808303816000875af115801561016f573d6000803e3d6000fd5b505050506040513d601f19601f8201168201806040525081019061019391906104e6565b905090565b60008082600581106101ac576101ac610510565b01546001600160a01b031692915050565b60005b60055460ff90811690821610156102205733600060ff8316600581106101e8576101e8610510565b01546001600160a01b03160361021857604051637b811e5b60e01b81523360048201526024015b60405180910390fd5b6001016101c0565b50662386f26fc10000341461024857604051636bae82db60e11b815260040160405180910390fd5b6005805460ff161061026d5760405163e98beec560e01b815260040160405180910390fd5b61027561010d565b60ff1660011461029857604051631afef96760e31b815260040160405180910390fd5b60058054339160009160ff169081106102b3576102b3610510565b0180546001600160a01b0319166001600160a01b0392909216919091179055600580546000906102e59060ff1661053c565b825460ff9182166101009390930a92830291909202199091161790556040513381527fd196f2977fe2b8b63f631a98b5e5967845e4fcf00f48ced5587cafe76122ea9c9060200160405180910390a160055460ff16600419016103e657604051636dd047f360e01b8152600260048201527f00000000000000000000000000000000000000000000000000000000000000006001600160a01b031690636dd047f390602401600060405180830381600087803b1580156103a457600080fd5b505af11580156103b8573d6000803e3d6000fd5b50506040517f4cf2e2dcdeacb2322843921968cb0e6a97a686594cb0a4f29abb65a7ed651952925060009150a15b565b6000336001600160a01b037f000000000000000000000000000000000000000000000000000000000000000016146104645760405163eceacbd560e01b81523360048201526001600160a01b037f000000000000000000000000000000000000000000000000000000000000000016602482015260440161020f565b61046c61010d565b60ff1660021461048f57604051630fec256b60e31b815260040160405180910390fd5b61049a600f8361055b565b6104a590601061057d565b601155919050565b600081600581106104bd57600080fd5b01546001600160a01b0316905081565b6000602082840312156104df57600080fd5b5035919050565b6000602082840312156104f857600080fd5b815160ff8116811461050957600080fd5b9392505050565b634e487b7160e01b600052603260045260246000fd5b634e487b7160e01b600052601160045260246000fd5b600060ff821660ff810361055257610552610526565b60010192915050565b60008261057857634e487b7160e01b600052601260045260246000fd5b500690565b8082018082111561059057610590610526565b9291505056fea2646970667358221220b2d386d67dd7aba242c1fb73b66c45a7fe634e2915b583a463d243811abc061a64736f6c63430008180033a26469706673582212202758b2d8b08a0e6f6b9d33c9bd2d3bf52a0e6a981429d1bba848e2b9860ee09264736f6c63430008180033","linkReferences":{}},"methodIdentifiers":{"createGame()":"7255d729","endGame()":"6cbc2ded","getGameState()":"b7d0628b","rawFulfillRandomWords(uint256,uint256[])":"1fe543e3","requestRandomWords()":"e0c86289","s_gamesState(address)":"d9c15561","s_requestIdToGameAddress(uint256)":"9609f077","setGameState(uint8)":"6dd047f3"},"id":35}