{"abi":[{"type":"constructor","inputs":[{"name":"VRF_subscriptionId","type":"uint64","internalType":"uint64"},{"name":"gasLane","type":"bytes32","internalType":"bytes32"},{"name":"VRF_callbackGasLimit","type":"uint32","internalType":"uint32"},{"name":"vrfCoordinator","type":"address","internalType":"address"},{"name":"AI_subscriptionId","type":"uint64","internalType":"uint64"},{"name":"AI_callbackGasLimit","type":"uint32","internalType":"uint32"},{"name":"donID","type":"bytes32","internalType":"bytes32"},{"name":"router","type":"address","internalType":"address"},{"name":"interval","type":"uint256","internalType":"uint256"}],"stateMutability":"nonpayable"},{"type":"function","name":"acceptOwnership","inputs":[],"outputs":[],"stateMutability":"nonpayable"},{"type":"function","name":"checkIfTimerOut","inputs":[],"outputs":[],"stateMutability":"nonpayable"},{"type":"function","name":"createGame","inputs":[],"outputs":[{"name":"","type":"address","internalType":"address"}],"stateMutability":"payable"},{"type":"function","name":"donId","inputs":[],"outputs":[{"name":"","type":"bytes32","internalType":"bytes32"}],"stateMutability":"view"},{"type":"function","name":"getGameState","inputs":[],"outputs":[{"name":"","type":"uint8","internalType":"enum UpperControl.GameState"}],"stateMutability":"view"},{"type":"function","name":"handleOracleFulfillment","inputs":[{"name":"requestId","type":"bytes32","internalType":"bytes32"},{"name":"response","type":"bytes","internalType":"bytes"},{"name":"err","type":"bytes","internalType":"bytes"}],"outputs":[],"stateMutability":"nonpayable"},{"type":"function","name":"i_interval","inputs":[],"outputs":[{"name":"","type":"uint256","internalType":"uint256"}],"stateMutability":"view"},{"type":"function","name":"owner","inputs":[],"outputs":[{"name":"","type":"address","internalType":"address"}],"stateMutability":"view"},{"type":"function","name":"rawFulfillRandomWords","inputs":[{"name":"requestId","type":"uint256","internalType":"uint256"},{"name":"randomWords","type":"uint256[]","internalType":"uint256[]"}],"outputs":[],"stateMutability":"nonpayable"},{"type":"function","name":"requestAI","inputs":[{"name":"source","type":"string","internalType":"string"},{"name":"secretsLocation","type":"uint8","internalType":"enum FunctionsRequest.Location"},{"name":"encryptedSecretsReference","type":"bytes","internalType":"bytes"},{"name":"args","type":"string[]","internalType":"string[]"},{"name":"bytesArgs","type":"bytes[]","internalType":"bytes[]"},{"name":"subscriptionId","type":"uint64","internalType":"uint64"},{"name":"callbackGasLimit","type":"uint32","internalType":"uint32"}],"outputs":[{"name":"requestId","type":"bytes32","internalType":"bytes32"}],"stateMutability":"nonpayable"},{"type":"function","name":"requestRandomWords","inputs":[],"outputs":[{"name":"requestId","type":"uint256","internalType":"uint256"}],"stateMutability":"nonpayable"},{"type":"function","name":"s_AI_requestIdToGameAddress","inputs":[{"name":"","type":"bytes32","internalType":"bytes32"}],"outputs":[{"name":"","type":"address","internalType":"address"}],"stateMutability":"view"},{"type":"function","name":"s_Automation_startTime","inputs":[{"name":"","type":"address","internalType":"address"}],"outputs":[{"name":"","type":"uint256","internalType":"uint256"}],"stateMutability":"view"},{"type":"function","name":"s_VRF_requestIdToGameAddress","inputs":[{"name":"","type":"uint256","internalType":"uint256"}],"outputs":[{"name":"","type":"address","internalType":"address"}],"stateMutability":"view"},{"type":"function","name":"s_gamesState","inputs":[{"name":"","type":"address","internalType":"address"}],"outputs":[{"name":"","type":"uint8","internalType":"enum UpperControl.GameState"}],"stateMutability":"view"},{"type":"function","name":"setDonId","inputs":[{"name":"newDonId","type":"bytes32","internalType":"bytes32"}],"outputs":[],"stateMutability":"nonpayable"},{"type":"function","name":"setGameState","inputs":[{"name":"_gameState","type":"uint8","internalType":"uint8"}],"outputs":[],"stateMutability":"nonpayable"},{"type":"function","name":"setTimer","inputs":[{"name":"_startTime","type":"uint256","internalType":"uint256"}],"outputs":[],"stateMutability":"nonpayable"},{"type":"function","name":"transferOwnership","inputs":[{"name":"to","type":"address","internalType":"address"}],"outputs":[],"stateMutability":"nonpayable"},{"type":"event","name":"AI_RequestFulfilled","inputs":[{"name":"requestId","type":"bytes32","indexed":false,"internalType":"bytes32"},{"name":"reponse","type":"bytes","indexed":false,"internalType":"bytes"},{"name":"err","type":"bytes","indexed":false,"internalType":"bytes"}],"anonymous":false},{"type":"event","name":"AI_RequestSent","inputs":[{"name":"requestId","type":"bytes32","indexed":false,"internalType":"bytes32"}],"anonymous":false},{"type":"event","name":"GameCreated","inputs":[{"name":"gameAddr","type":"address","indexed":true,"internalType":"address"}],"anonymous":false},{"type":"event","name":"GameFinished","inputs":[{"name":"gameAddr","type":"address","indexed":true,"internalType":"address"}],"anonymous":false},{"type":"event","name":"GameStart","inputs":[{"name":"gameAddr","type":"address","indexed":true,"internalType":"address"}],"anonymous":false},{"type":"event","name":"OwnershipTransferRequested","inputs":[{"name":"from","type":"address","indexed":true,"internalType":"address"},{"name":"to","type":"address","indexed":true,"internalType":"address"}],"anonymous":false},{"type":"event","name":"OwnershipTransferred","inputs":[{"name":"from","type":"address","indexed":true,"internalType":"address"},{"name":"to","type":"address","indexed":true,"internalType":"address"}],"anonymous":false},{"type":"event","name":"RequestFulfilled","inputs":[{"name":"id","type":"bytes32","indexed":true,"internalType":"bytes32"}],"anonymous":false},{"type":"event","name":"RequestSent","inputs":[{"name":"id","type":"bytes32","indexed":true,"internalType":"bytes32"}],"anonymous":false},{"type":"event","name":"TimerStarted","inputs":[{"name":"gameAddr","type":"address","indexed":true,"internalType":"address"},{"name":"startTime","type":"uint256","indexed":true,"internalType":"uint256"}],"anonymous":false},{"type":"event","name":"VRF_RequestFulfilled","inputs":[{"name":"requestId","type":"uint256","indexed":true,"internalType":"uint256"},{"name":"randomWords","type":"uint256[]","indexed":true,"internalType":"uint256[]"}],"anonymous":false},{"type":"event","name":"VRF_RequestSent","inputs":[{"name":"requestId","type":"uint256","indexed":true,"internalType":"uint256"},{"name":"s_numWords","type":"uint32","indexed":true,"internalType":"uint32"}],"anonymous":false},{"type":"error","name":"CallerNotGameContract","inputs":[]},{"type":"error","name":"EmptyArgs","inputs":[]},{"type":"error","name":"EmptySource","inputs":[]},{"type":"error","name":"GameNotInProgress","inputs":[{"name":"state","type":"uint8","internalType":"enum UpperControl.GameState"}]},{"type":"error","name":"NoInlineSecrets","inputs":[]},{"type":"error","name":"OnlyCoordinatorCanFulfill","inputs":[{"name":"have","type":"address","internalType":"address"},{"name":"want","type":"address","internalType":"address"}]},{"type":"error","name":"OnlyRouterCanFulfill","inputs":[]},{"type":"error","name":"UpkeepNotNeeded","inputs":[]}],"bytecode":{"object":"0x6101c06040523480156200001257600080fd5b5060405162004f4938038062004f4983398101604081905262000035916200021f565b6001600160a01b03808716608052821660a05233806000816200009f5760405162461bcd60e51b815260206004820152601860248201527f43616e6e6f7420736574206f776e657220746f207a65726f000000000000000060448201526064015b60405180910390fd5b600080546001600160a01b0319166001600160a01b0384811691909117909155811615620000d257620000d2816200012a565b5050506001600160a01b0395861660c05260e0979097526001600160401b039788166101005263ffffffff95861661012052929096166101605290921661018052600793909355909116610140526101a052620002bf565b336001600160a01b03821603620001845760405162461bcd60e51b815260206004820152601760248201527f43616e6e6f74207472616e7366657220746f2073656c66000000000000000000604482015260640162000096565b600180546001600160a01b0319166001600160a01b0383811691821790925560008054604051929316917fed8889f560326eb138920d842192f0eb3dd22b4f139c87a2c57538e05bae12789190a350565b80516001600160401b0381168114620001ed57600080fd5b919050565b805163ffffffff81168114620001ed57600080fd5b80516001600160a01b0381168114620001ed57600080fd5b60008060008060008060008060006101208a8c0312156200023f57600080fd5b6200024a8a620001d5565b985060208a015197506200026160408b01620001f2565b96506200027160608b0162000207565b95506200028160808b01620001d5565b94506200029160a08b01620001f2565b935060c08a01519250620002a860e08b0162000207565b91506101008a015190509295985092959850929598565b60805160a05160c05160e05161010051610120516101405161016051610180516101a051614c026200034760003960008181610233015261053001526000505060005050600050506000610dd501526000610da201526000610d7401526000610e0301526000818161043601526113cd0152600081816106cf01526107120152614c026000f3fe6080604052600436106200012b5760003560e01c806379ba509711620000ad578063b976bd17116200006c578063b976bd171462000364578063d9c155611462000389578063e0c8628914620003bd578063f2fde38b14620003d5578063fb35ae8614620003fa57600080fd5b806379ba509714620002a957806387e3d4fa14620002c15780638da5cb5b14620002fb5780638dbe7b9d146200031b578063b7d0628b146200033357600080fd5b80633e88ca0811620000fa5780633e88ca0814620001cc5780636919207d146200021f5780636dd047f314620002555780637255d729146200027a57806378ca5de7146200028457600080fd5b80630ca7617514620001305780631354535314620001575780631fe543e3146200016f5780633b43bb231462000194575b600080fd5b3480156200013d57600080fd5b50620001556200014f36600462001b80565b6200042b565b005b3480156200016457600080fd5b5062000155620004b2565b3480156200017c57600080fd5b50620001556200018e36600462001c19565b620006c4565b348015620001a157600080fd5b50620001b9620001b336600462001d98565b62000754565b6040519081526020015b60405180910390f35b348015620001d957600080fd5b5062000206620001eb36600462001ea1565b6003602052600090815260409020546001600160a01b031681565b6040516001600160a01b039091168152602001620001c3565b3480156200022c57600080fd5b50620001b97f000000000000000000000000000000000000000000000000000000000000000081565b3480156200026257600080fd5b50620001556200027436600462001ebb565b6200095a565b6200020662000a5e565b3480156200029157600080fd5b5062000155620002a336600462001ea1565b62000b9f565b348015620002b657600080fd5b506200015562000bae565b348015620002ce57600080fd5b5062000206620002e036600462001ea1565b6002602052600090815260409020546001600160a01b031681565b3480156200030857600080fd5b506000546001600160a01b031662000206565b3480156200032857600080fd5b50620001b960075481565b3480156200034057600080fd5b503360009081526005602052604090205460ff165b604051620001c3919062001ef6565b3480156200037157600080fd5b50620001556200038336600462001ea1565b62000c5a565b3480156200039657600080fd5b5062000355620003a836600462001f1f565b60056020526000908152604090205460ff1681565b348015620003ca57600080fd5b50620001b962000d1c565b348015620003e257600080fd5b5062000155620003f436600462001f1f565b62000ec9565b3480156200040757600080fd5b50620001b96200041936600462001f1f565b60046020526000908152604090205481565b336001600160a01b037f00000000000000000000000000000000000000000000000000000000000000001614620004755760405163c6829f8360e01b815260040160405180910390fd5b6200048283838362000ede565b60405183907f85e1543bf2f84fe80c6badbce3648c8539ad1df4d2b3d822938ca0538be727e690600090a2505050565b6006546000819003620004c25750565b6000620004d160018362001f60565b90506000620004e260018462001f60565b90505b82811115620006bf5760006006828154811062000506576200050662001f76565b60009182526020808320909101546001600160a01b031680835260049091526040909120549091507f0000000000000000000000000000000000000000000000000000000000000000906200055c904262001f60565b1115620006b457828203620005a75760068054806200057f576200057f62001f8c565b600082815260209020810160001990810180546001600160a01b031916905501905562000651565b60068381548110620005bd57620005bd62001f76565b600091825260209091200154600680546001600160a01b039092169184908110620005ec57620005ec62001f76565b9060005260206000200160006101000a8154816001600160a01b0302191690836001600160a01b0316021790555060068054806200062e576200062e62001f8c565b600082815260209020810160001990810180546001600160a01b03191690550190555b6200065c8362001fa2565b9250806001600160a01b0316638575ec886040518163ffffffff1660e01b8152600401600060405180830381600087803b1580156200069a57600080fd5b505af1158015620006af573d6000803e3d6000fd5b505050505b5060001901620004e5565b505050565b336001600160a01b037f00000000000000000000000000000000000000000000000000000000000000001614620007445760405163073e64fd60e21b81523360048201526001600160a01b037f00000000000000000000000000000000000000000000000000000000000000001660248201526044015b60405180910390fd5b62000750828262000f3e565b5050565b6000803360009081526005602052604090205460ff1660038111156200077e576200077e62001ee0565b036200079d5760405163a9acc16d60e01b815260040160405180910390fd5b620007df6040805160e0810190915280600081526020016000815260200160008152602001606081526020016060815260200160608152602001606081525090565b620008286000808f8f8080601f0160208091040260200160405190810160405280939291908181526020018383808284376000920191909152508795949392505062000fe19050565b602081018b600281111562000841576200084162001ee0565b9081600281111562000857576200085762001ee0565b8152505089898080601f01602080910402602001604051908101604052809392919081815260200183838082843760009201919091525050505060808201528615620008b557620008b5620008ad888a62001fbc565b82906200106c565b8415620008d457620008d4620008cc86886200204d565b829062001097565b620008ee620008e382620010c2565b8585600754620013c8565b6000818152600360205260409081902080546001600160a01b03191633179055519092507f8b2283d7ac4a4eab9d1b06d73aa76d75ea92912b03e9b37d31fc0d14e1417bd690620009429084815260200190565b60405180910390a1509b9a5050505050505050505050565b3360009081526005602052604081205460ff16600381111562000981576200098162001ee0565b03620009a05760405163a9acc16d60e01b815260040160405180910390fd5b8060ff166003811115620009b857620009b862001ee0565b336000908152600560205260409020805460ff19166001836003811115620009e457620009e462001ee0565b02179055508060ff1660020362000a235760405133907fb3e736faa4964dca0165113d691c436b6fb927baffb3e664f43e18663bdaad1290600090a250565b8060ff1660030362000a5b5760405133907f1728dd43546edd06fabfe796e5b641a151aa90998bfd1b1ec0ae98c6e770845990600090a25b50565b6000662386f26fc10000341462000aaf5760405162461bcd60e51b8152602060048201526014602482015273125b98dbdc9c9958dd0819995948185b5bdd5b9d60621b60448201526064016200073b565b6000662386f26fc100003360405162000ac89062001a73565b6001600160a01b0390911681526020016040518091039082f090508015801562000af6573d6000803e3d6000fd5b5090506001600160a01b03811662000b515760405162461bcd60e51b815260206004820152601e60248201527f47616d6520696e7374616e6365206372656174696f6e206661696c65642e000060448201526064016200073b565b6001600160a01b038116600081815260056020526040808220805460ff19166001179055517f4f0d1d413a983b9df8ab6ab954635b186a1e9a09ee6dc1b43263ddbf484122679190a2919050565b62000ba96200149f565b600755565b6001546001600160a01b0316331462000c035760405162461bcd60e51b815260206004820152601660248201527526bab9ba10313290383937b837b9b2b21037bbb732b960511b60448201526064016200073b565b60008054336001600160a01b0319808316821784556001805490911690556040516001600160a01b0390921692909183917f8be0079c531659141344cd1fd0a4f28419497f9722a3daafe3b4186f6b6457e091a350565b3360009081526005602052604081205460ff16600381111562000c815762000c8162001ee0565b0362000ca05760405163a9acc16d60e01b815260040160405180910390fd5b33600081815260046020526040808220849055600680546001810182559083527ff652222313e28459528d920b65115c16c04f3efc82aaedc97be59f3f377c0d3f0180546001600160a01b03191684179055518392917f9d757e5a6b681468cf04f59f7130ca94029fb9ee21d19d94576858464728370a91a350565b6000803360009081526005602052604090205460ff16600381111562000d465762000d4662001ee0565b0362000d655760405163a9acc16d60e01b815260040160405180910390fd5b6040516305d3b1d360e41b81527f000000000000000000000000000000000000000000000000000000000000000060048201526001600160401b037f00000000000000000000000000000000000000000000000000000000000000001660248201526003604482015263ffffffff7f0000000000000000000000000000000000000000000000000000000000000000166064820152600160848201527f00000000000000000000000000000000000000000000000000000000000000006001600160a01b031690635d3b1d309060a4016020604051808303816000875af115801562000e55573d6000803e3d6000fd5b505050506040513d601f19601f8201168201806040525081019062000e7b9190620020bd565b60008181526002602052604080822080546001600160a01b031916331790555191925060019183917f7a2a27da85202b292c498bd36a9710339b194a2bd504e33d2eac7ed028085f7391a390565b62000ed36200149f565b62000a5b81620014f6565b600083815260036020526040908190205490516001600160a01b03909116907f35459c43e058473b8eb8bf4b55a22fdb09df6899ccda8de2209ccdb990b9e0639062000f30908690869086906200211f565b60405180910390a150505050565b6000828152600260205260409020546001600160a01b03168062000f9a5760405162461bcd60e51b8152602060048201526012602482015271125b9d985b1a59081c995c5d595cdd08125160721b60448201526064016200073b565b8160405162000faa919062002158565b6040519081900381209084907ff8d60ef7d8b195cc4da42a49eb2fe995d5abaf85abefb989c3535b70390b62d790600090a3505050565b805160000362001004576040516322ce3edd60e01b815260040160405180910390fd5b838360028111156200101a576200101a62001ee0565b9081600281111562001030576200103062001ee0565b9052506040840182801562001049576200104962001ee0565b908180156200105c576200105c62001ee0565b9052506060909301929092525050565b80516000036200108f5760405163fe936cb760e01b815260040160405180910390fd5b60a090910152565b8051600003620010ba5760405163fe936cb760e01b815260040160405180910390fd5b60c090910152565b60606000620010d3610100620015a1565b90506200110e6040518060400160405280600c81526020016b31b7b232a637b1b0ba34b7b760a11b81525082620015c690919063ffffffff16565b82516200113190600281111562001129576200112962001ee0565b8290620015e3565b6040805180820190915260088152676c616e677561676560c01b60208201526200115d908290620015c6565b60408301516200117890801562001129576200112962001ee0565b604080518082019091526006815265736f7572636560d01b6020820152620011a2908290620015c6565b6060830151620011b4908290620015c6565b60a083015151156200124e576040805180820190915260048152636172677360e01b6020820152620011e8908290620015c6565b620011f38162001621565b60005b8360a00151518110156200124257620012398460a00151828151811062001221576200122162001f76565b602002602001015183620015c690919063ffffffff16565b600101620011f6565b506200124e8162001649565b60808301515115620013215760008360200151600281111562001275576200127562001ee0565b03620012945760405163a80d31f760e01b815260040160405180910390fd5b60408051808201909152600f81526e39b2b1b932ba39a637b1b0ba34b7b760891b6020820152620012c7908290620015c6565b620012e48360200151600281111562001129576200112962001ee0565b6040805180820190915260078152667365637265747360c81b60208201526200130f908290620015c6565b6080830151620013219082906200166b565b60c08301515115620013c05760408051808201909152600981526862797465734172677360b81b60208201526200135a908290620015c6565b620013658162001621565b60005b8360c0015151811015620013b457620013ab8460c00151828151811062001393576200139362001f76565b6020026020010151836200166b90919063ffffffff16565b60010162001368565b50620013c08162001649565b515192915050565b6000807f00000000000000000000000000000000000000000000000000000000000000006001600160a01b031663461d27628688600188886040518663ffffffff1660e01b81526004016200142295949392919062002190565b6020604051808303816000875af115801562001442573d6000803e3d6000fd5b505050506040513d601f19601f82011682018060405250810190620014689190620020bd565b60405190915081907f1131472297a800fee664d1d89cfa8f7676ff07189ecc53f80bbb5f4969099db890600090a295945050505050565b6000546001600160a01b03163314620014f45760405162461bcd60e51b815260206004820152601660248201527527b7363c9031b0b63630b1363290313c9037bbb732b960511b60448201526064016200073b565b565b336001600160a01b03821603620015505760405162461bcd60e51b815260206004820152601760248201527f43616e6e6f74207472616e7366657220746f2073656c6600000000000000000060448201526064016200073b565b600180546001600160a01b0319166001600160a01b0383811691821790925560008054604051929316917fed8889f560326eb138920d842192f0eb3dd22b4f139c87a2c57538e05bae12789190a350565b620015ab62001a81565b8051620015b990836200167a565b5060006020820152919050565b620015d58260038351620016fe565b8151620006bf908262001833565b8151620015f29060c26200185d565b506200075082826040516020016200160c91815260200190565b6040516020818303038152906040526200166b565b6200162e816004620018ce565b600181602001818151620016439190620021db565b90525050565b62001656816007620018ce565b60018160200181815162001643919062001f60565b620015d58260028351620016fe565b6040805180820190915260608152600060208201526200169c602083620021f1565b15620016cb57620016af602083620021f1565b620016bc90602062001f60565b620016c89083620021db565b91505b602080840183905260405180855260008152908184010181811015620016f057600080fd5b604052508290505b92915050565b6017816001600160401b0316116200172d578251620017279060e0600585901b1683176200185d565b50505050565b60ff816001600160401b0316116200177257825162001758906018611fe0600586901b16176200185d565b50825162001727906001600160401b0383166001620018e7565b61ffff816001600160401b031611620017b85782516200179e906019611fe0600586901b16176200185d565b50825162001727906001600160401b0383166002620018e7565b63ffffffff816001600160401b03161162001800578251620017e690601a611fe0600586901b16176200185d565b50825162001727906001600160401b0383166004620018e7565b82516200181990601b611fe0600586901b16176200185d565b50825162001727906001600160401b0383166008620018e7565b604080518082019091526060815260006020820152620018568383845162001977565b9392505050565b604080518082019091526060815260006020820152825151600062001884826001620021db565b905084602001518210620018aa57620018aa85620018a483600262002214565b62001a58565b8451602083820101858153508051821115620018c4578181525b5093949350505050565b8151620006bf90601f611fe0600585901b16176200185d565b60408051808201909152606081526000602082015283515160006200190d8285620021db565b905085602001518111156200192e576200192e86620018a483600262002214565b6000600162001940866101006200232b565b6200194c919062001f60565b905086518281018783198251161781525080518311156200196b578281525b50959695505050505050565b60408051808201909152606081526000602082015282518211156200199b57600080fd5b8351516000620019ac8483620021db565b90508560200151811115620019cd57620019cd86620018a483600262002214565b855180518382016020019160009180851115620019e8578482525b505050602086015b6020861062001a30578051825262001a0a602083620021db565b915062001a19602082620021db565b905062001a2860208762001f60565b9550620019f0565b51815160001960208890036101000a0190811690199190911617905250849150509392505050565b815162001a6683836200167a565b5062001727838262001833565b612893806200233a83390190565b604051806040016040528062001aaa604051806040016040528060608152602001600081525090565b8152602001600081525090565b634e487b7160e01b600052604160045260246000fd5b604051601f8201601f191681016001600160401b038111828210171562001af85762001af862001ab7565b604052919050565b60006001600160401b0383111562001b1c5762001b1c62001ab7565b62001b31601f8401601f191660200162001acd565b905082815283838301111562001b4657600080fd5b828260208301376000602084830101529392505050565b600082601f83011262001b6f57600080fd5b620018568383356020850162001b00565b60008060006060848603121562001b9657600080fd5b8335925060208401356001600160401b038082111562001bb557600080fd5b62001bc38783880162001b5d565b9350604086013591508082111562001bda57600080fd5b5062001be98682870162001b5d565b9150509250925092565b60006001600160401b0382111562001c0f5762001c0f62001ab7565b5060051b60200190565b6000806040838503121562001c2d57600080fd5b823591506020808401356001600160401b0381111562001c4c57600080fd5b8401601f8101861362001c5e57600080fd5b803562001c7562001c6f8262001bf3565b62001acd565b81815260059190911b8201830190838101908883111562001c9557600080fd5b928401925b8284101562001cb55783358252928401929084019062001c9a565b80955050505050509250929050565b60008083601f84011262001cd757600080fd5b5081356001600160401b0381111562001cef57600080fd5b60208301915083602082850101111562001d0857600080fd5b9250929050565b80356003811062001d1f57600080fd5b919050565b60008083601f84011262001d3757600080fd5b5081356001600160401b0381111562001d4f57600080fd5b6020830191508360208260051b850101111562001d0857600080fd5b80356001600160401b038116811462001d1f57600080fd5b803563ffffffff8116811462001d1f57600080fd5b600080600080600080600080600080600060e08c8e03121562001dba57600080fd5b6001600160401b03808d35111562001dd157600080fd5b62001de08e8e358f0162001cc4565b909c509a5062001df360208e0162001d0f565b99508060408e0135111562001e0757600080fd5b62001e198e60408f01358f0162001cc4565b909950975060608d013581101562001e3057600080fd5b62001e428e60608f01358f0162001d24565b909750955060808d013581101562001e5957600080fd5b5062001e6c8d60808e01358e0162001d24565b909450925062001e7f60a08d0162001d6b565b915062001e8f60c08d0162001d83565b90509295989b509295989b9093969950565b60006020828403121562001eb457600080fd5b5035919050565b60006020828403121562001ece57600080fd5b813560ff811681146200185657600080fd5b634e487b7160e01b600052602160045260246000fd5b602081016004831062001f1957634e487b7160e01b600052602160045260246000fd5b91905290565b60006020828403121562001f3257600080fd5b81356001600160a01b03811681146200185657600080fd5b634e487b7160e01b600052601160045260246000fd5b81810381811115620016f857620016f862001f4a565b634e487b7160e01b600052603260045260246000fd5b634e487b7160e01b600052603160045260246000fd5b60008162001fb45762001fb462001f4a565b506000190190565b600062001fcd62001c6f8462001bf3565b80848252602080830192508560051b85013681111562001fec57600080fd5b855b81811015620020415780356001600160401b038111156200200f5760008081fd5b870136601f820112620020225760008081fd5b6200203236823586840162001b00565b86525093820193820162001fee565b50919695505050505050565b60006200205e62001c6f8462001bf3565b80848252602080830192508560051b8501368111156200207d57600080fd5b855b81811015620020415780356001600160401b03811115620020a05760008081fd5b620020ae36828a0162001b5d565b8652509382019382016200207f565b600060208284031215620020d057600080fd5b5051919050565b6000815180845260005b81811015620020ff57602081850181015186830182015201620020e1565b506000602082860101526020601f19601f83011685010191505092915050565b8381526060602082015260006200213a6060830185620020d7565b82810360408401526200214e8185620020d7565b9695505050505050565b815160009082906020808601845b83811015620021845781518552938201939082019060010162002166565b50929695505050505050565b6001600160401b038616815260a060208201526000620021b460a0830187620020d7565b61ffff9590951660408301525063ffffffff92909216606083015260809091015292915050565b80820180821115620016f857620016f862001f4a565b6000826200220f57634e487b7160e01b600052601260045260246000fd5b500690565b8082028115828204841417620016f857620016f862001f4a565b600181815b808511156200226f57816000190482111562002253576200225362001f4a565b808516156200226157918102915b93841c939080029062002233565b509250929050565b6000826200228857506001620016f8565b816200229757506000620016f8565b8160018114620022b05760028114620022bb57620022db565b6001915050620016f8565b60ff841115620022cf57620022cf62001f4a565b50506001821b620016f8565b5060208310610133831016604e8410600b841016171562002300575081810a620016f8565b6200230c83836200222e565b806000190482111562002323576200232362001f4a565b029392505050565b60006200185683836200227756fe6000805461ffff191681556001556101a0604052604461012081815260a0918291906200278a6101403981526020016040518060800160405280605d815260200162002836605d91398152602001604051806060016040528060328152602001620027ce603291398152602001604051806060016040528060368152602001620028006036913990526200009890601e9060046200018e565b506040516200289338038062002893833981016040819052620000bb9162000265565b336080526000548190600a9060ff1660038110620000dd57620000dd62000297565b0180546001600160a01b0319166001600160a01b03928316179055811660008181527f1ae1eab41a4db68d73559dd6c8b7ac16a4bc819634768486d35edbff05543abf602090815260408083206127109055825460ff90811684528280528184209484529382528083206103e8905582548416835260229091528120606490558054909182916200016f9116620002ad565b91906101000a81548160ff021916908360ff160217905550506200044e565b828054828255906000526020600020908101928215620001d9579160200282015b82811115620001d95782518290620001c8908262000382565b5091602001919060010190620001af565b50620001e7929150620001eb565b5090565b80821115620001e75760006200020282826200020c565b50600101620001eb565b5080546200021a90620002f1565b6000825580601f106200022b575050565b601f0160209004906000526020600020908101906200024b91906200024e565b50565b5b80821115620001e757600081556001016200024f565b6000602082840312156200027857600080fd5b81516001600160a01b03811681146200029057600080fd5b9392505050565b634e487b7160e01b600052603260045260246000fd5b600060ff821660ff8103620002d257634e487b7160e01b600052601160045260246000fd5b60010192915050565b634e487b7160e01b600052604160045260246000fd5b600181811c908216806200030657607f821691505b6020821081036200032757634e487b7160e01b600052602260045260246000fd5b50919050565b601f8211156200037d576000816000526020600020601f850160051c81016020861015620003585750805b601f850160051c820191505b81811015620003795782815560010162000364565b5050505b505050565b81516001600160401b038111156200039e576200039e620002db565b620003b681620003af8454620002f1565b846200032d565b602080601f831160018114620003ee5760008415620003d55750858301515b600019600386901b1c1916600185901b17855562000379565b600085815260208120601f198616915b828110156200041f57888601518255948401946001909101908401620003fe565b50858210156200043e5787850151600019600388901b60f8161c191681555b5050505050600190811b01905550565b6080516122d3620004b760003960008181610370015281816105f601528181610668015281816106aa015281816107a2015281816107e4015281816109d901528181610a1b01528181610bc301528181610c0501528181611424015261172901526122d36000f3fe6080604052600436106101095760003560e01c80638fad89f411610095578063ae771f6b11610064578063ae771f6b146102a7578063c457fb37146102df578063dc7b30551461030c578063e55ae4e81461032c578063f3e626401461034c57600080fd5b80638fad89f414610227578063922a2118146102475780639be955e614610267578063a9438abc1461028757600080fd5b80635ebb6365116100dc5780635ebb636514610192578063747bd241146101b257806375c1631d146101d257806380679c4d146101f25780638575ec881461021257600080fd5b80631865c57d1461010e578063218bd5771461013a57806334dcca0f14610144578063511cd8cf14610164575b600080fd5b34801561011a57600080fd5b5061012361036c565b60405160ff90911681526020015b60405180910390f35b6101426103f7565b005b34801561015057600080fd5b5061014261015f3660046119fe565b61065d565b34801561017057600080fd5b5061018461017f366004611aab565b610748565b604051908152602001610131565b34801561019e57600080fd5b506101846101ad366004611aab565b610770565b3480156101be57600080fd5b506101426101cd366004611b54565b610797565b3480156101de57600080fd5b506101426101ed366004611ba6565b610870565b3480156101fe57600080fd5b5061014261020d366004611bc8565b6109ce565b34801561021e57600080fd5b50610142610b8d565b34801561023357600080fd5b50610142610242366004611be1565b610c8a565b34801561025357600080fd5b50610142610262366004611ba6565b610db2565b34801561027357600080fd5b50610142610282366004611bc8565b610ef5565b34801561029357600080fd5b506101426102a2366004611c92565b610f70565b3480156102b357600080fd5b506102c76102c2366004611bc8565b611038565b6040516001600160a01b039091168152602001610131565b3480156102eb57600080fd5b506101846102fa366004611bc8565b60009081526022602052604090205490565b34801561031857600080fd5b50610184610327366004611caf565b611058565b34801561033857600080fd5b506102c7610347366004611bc8565b6110e3565b34801561035857600080fd5b50610142610367366004611cca565b611109565b60007f00000000000000000000000000000000000000000000000000000000000000006001600160a01b031663b7d0628b6040518163ffffffff1660e01b81526004016020604051808303816000875af11580156103ce573d6000803e3d6000fd5b505050506040513d601f19601f820116820180604052508101906103f29190611cff565b905090565b60005b60005460ff908116908216101561045a5733600a60ff83166003811061042257610422611d1c565b01546001600160a01b03160361045257604051637b811e5b60e01b81523360048201526024015b60405180910390fd5b6001016103fa565b50662386f26fc10000341461048257604051636bae82db60e11b815260040160405180910390fd5b600054600360ff909116106104aa5760405163e98beec560e01b815260040160405180910390fd5b6104b261036c565b60ff166001146104d557604051631afef96760e31b815260040160405180910390fd5b6000543390600a9060ff16600381106104f0576104f0611d1c565b0180546001600160a01b0319166001600160a01b03929092169190911790553360008181527f1ae1eab41a4db68d73559dd6c8b7ac16a4bc819634768486d35edbff05543abf602090815260408083206127109055825460ff90811684528280528184209484529382528083206103e8905582548416835260229091528120606490558054909182916105839116611d48565b825460ff9182166101009390930a92830291909202199091161790556040513381527fd196f2977fe2b8b63f631a98b5e5967845e4fcf00f48ced5587cafe76122ea9c9060200160405180910390a160005460ff166002190161065b57604051636dd047f360e01b8152600260048201527f00000000000000000000000000000000000000000000000000000000000000006001600160a01b031690636dd047f390602401600060405180830381600087803b15801561064257600080fd5b505af1158015610656573d6000803e3d6000fd5b505050505b565b336001600160a01b037f000000000000000000000000000000000000000000000000000000000000000016146106d75760405163eceacbd560e01b81523360048201526001600160a01b037f0000000000000000000000000000000000000000000000000000000000000000166024820152604401610449565b6106df61036c565b60ff1660021461070257604051630fec256b60e31b815260040160405180910390fd5b60005b60038110156107445781818151811061072057610720611d1c565b60209081029190910181015160008381526022909252604090912055600101610705565b5050565b6000818152602080805260408083206001600160a01b03861684529091529020545b92915050565b60009081526021602090815260408083206001600160a01b03949094168352929052205490565b336001600160a01b037f000000000000000000000000000000000000000000000000000000000000000016146108115760405163eceacbd560e01b81523360048201526001600160a01b037f0000000000000000000000000000000000000000000000000000000000000000166024820152604401610449565b61081961036c565b60ff1660021461083c57604051630fec256b60e31b815260040160405180910390fd5b81600280018260ff168154811061085557610855611d1c565b90600052602060002001908161086b9190611df1565b505050565b6000805b60038110156108b25733600a826003811061089157610891611d1c565b01546001600160a01b0316036108aa57600191506108b2565b600101610874565b5080156109b3576108c161036c565b60ff166002146108e457604051630fec256b60e31b815260040160405180910390fd5b60006108f03385610748565b9050828110156109245760405163a484ed0f60e01b8152600481018590526024810184905260448101829052606401610449565b60008481526021602090815260408083203384529091528120805485929061094d908490611eb1565b909155505060008481526020808052604080832033845290915281208054859290610979908490611ec4565b90915550506040518390339086907f7765a1c07bdce3390c521eaeb86030b188b77cbaba2d76bd7c9c32d906bfbcba90600090a450505050565b60405163f5665c0b60e01b8152336004820152602401610449565b336001600160a01b037f00000000000000000000000000000000000000000000000000000000000000001614610a485760405163eceacbd560e01b81523360048201526001600160a01b037f0000000000000000000000000000000000000000000000000000000000000000166024820152604401610449565b610a5061036c565b60ff16600214610a7357604051630fec256b60e31b815260040160405180910390fd5b6000610a80600383611eed565b905060005b6003811015610b1e576003805482908110610aa257610aa2611d1c565b90600052602060002001601e8381548110610abf57610abf611d1c565b90600052602060002001604051602001610ada929190611f74565b60405160208183030381529060405260026001018281548110610aff57610aff611d1c565b906000526020600020019081610b159190611df1565b50600101610a85565b507fdc13056785db249fc4d07b5668a5e8e6ef95f4295734cb77716a9e8c41666dd8601e8281548110610b5357610b53611d1c565b90600052602060002001610b738360009081526022602052604090205490565b604051610b8192919061200e565b60405180910390a15050565b610b9561036c565b60ff16600214610bb857604051630fec256b60e31b815260040160405180910390fd5b336001600160a01b037f00000000000000000000000000000000000000000000000000000000000000001614610c325760405163eceacbd560e01b81523360048201526001600160a01b037f0000000000000000000000000000000000000000000000000000000000000000166024820152604401610449565b60005b6003811015610c5057610c47816112c3565b50600101610c35565b50600054610c6890600390610100900460ff16612030565b60ff16600003610c7a57610c7a6113f7565b610c826114a9565b61065b611641565b60005b60038110156107445781610ca2826003612052565b81518110610cb257610cb2611d1c565b602002602001015160026000018281548110610cd057610cd0611d1c565b906000526020600020019081610ce69190611df1565b5081610cf3826003612052565b610cfe906001611eb1565b81518110610d0e57610d0e611d1c565b602002602001015160026001018281548110610d2c57610d2c611d1c565b906000526020600020019081610d429190611df1565b5081610d4f826003612052565b610d5a906002611eb1565b81518110610d6a57610d6a611d1c565b602002602001015160026003018281548110610d8857610d88611d1c565b906000526020600020019081610d9e9190611df1565b50600101610dab81612069565b9050610c8d565b6000805b6003811015610df45733600a8260038110610dd357610dd3611d1c565b01546001600160a01b031603610dec5760019150610df4565b600101610db6565b5080156109b357610e0361036c565b60ff16600214610e2657604051630fec256b60e31b815260040160405180910390fd5b6000610e323385610770565b905082811015610e66576040516367b75ab560e01b8152600481018590526024810184905260448101829052606401610449565b600084815260216020908152604080832033845290915281208054859290610e8f908490611ec4565b909155505060008481526020808052604080832033845290915281208054859290610ebb908490611eb1565b90915550506040518390339086907f16a4cf4c8063831dff6354ec352b7d70902de559371b4c578fa72e3c754a2d1790600090a450505050565b610efd61036c565b60ff16600214610f2057604051630fec256b60e31b815260040160405180910390fd5b60005b600381101561074457600081815260226020526040902054610f459083611eed565b60008281526022602052604081208054909190610f63908490611eb1565b9091555050600101610f23565b6000805b6003811015610fb25733600a8260038110610f9157610f91611d1c565b01546001600160a01b031603610faa5760019150610fb2565b600101610f74565b5080156109b357610fc161036c565b60ff16600214610fe457604051630fec256b60e31b815260040160405180910390fd5b336000818152601f6020908152604091829020805460ff191660ff87169081179091558251938452908301527f8684a5861ae8ac05e20450002c4db07118cb5cb1d412a0ff78c2685b13964f189101610b81565b600a816003811061104857600080fd5b01546001600160a01b0316905081565b600080805b60038110156110b15760008181526022602052604090205461107f8583610770565b6110898684610748565b6110939190611eb1565b61109d9190612052565b6110a79083611eb1565b915060010161105d565b506110bd836003610770565b6110c8846003610748565b6110d29190611eb1565b6110dc9082611eb1565b9392505050565b6000600a82600381106110f8576110f8611d1c565b01546001600160a01b031692915050565b6000805b600381101561114b5733600a826003811061112a5761112a611d1c565b01546001600160a01b031603611143576001915061114b565b60010161110d565b5080156109b35761115a61036c565b60ff1660021461117d57604051630fec256b60e31b815260040160405180910390fd5b60006111898486610770565b9050828110156111bd576040516367b75ab560e01b8152600481018690526024810184905260448101829052606401610449565b60008581526021602090815260408083206001600160a01b0388168452909152812080548592906111ef908490611ec4565b909155505060008581526022602052604090205461120d9084612052565b6001600160a01b03851660009081527f1ae1eab41a4db68d73559dd6c8b7ac16a4bc819634768486d35edbff05543abf602052604081208054909190611254908490611eb1565b909155505060008581526020808052604080832033845290915281208054859290611280908490611eb1565b909155505060405183906001600160a01b0386169087907f787925e050e8cb8dba61a675397ced37ba5304fc76b70c50b62753eed7c9ef6490600090a450610656565b60006112cd61036c565b60ff166002146112f057604051630fec256b60e31b815260040160405180910390fd5b5060408051426020808301919091526bffffffffffffffffffffffff193360601b16828401526054808301859052835180840390910181526074909201909252805191012060008054610100900460ff1690036113865760408051828152602081018490527fa9e3f640f8d103969a480cfdc3b4deae671b0c660a9682733fb75d3d0d18924f91015b60405180910390a1919050565b7f8b8e7a803a7abf62a6d05feea279d6fbe61130791839f4614f45f7b3186852ad81600d84600381106113bb576113bb611d1c565b60050201600401846002800186815481106113d8576113d8611d1c565b906000526020600020016040516113799493929190612082565b919050565b6113ff61036c565b60ff1660021461142257604051630fec256b60e31b815260040160405180910390fd5b7f00000000000000000000000000000000000000000000000000000000000000006001600160a01b0316630a01fb9e6040518163ffffffff1660e01b81526004016020604051808303816000875af1158015611482573d6000803e3d6000fd5b505050506040513d601f19601f820116820180604052508101906114a691906120b3565b50565b6114b161036c565b60ff166002146114d457604051630fec256b60e31b815260040160405180910390fd5b6114e0601c6000611876565b6114ec601d6000611894565b60005b60038110156115a957600081815260226020526040812054601d80546001810182559083527f6d4407e7be21f808e6509aa9fa9143369579dd7d760fe20a2c09680fc146134f01555b60038110156115a057601c828154811061155457611554611d1c565b90600052602060002001611585600a846003811061157457611574611d1c565b01546001600160a01b031683610770565b81546001818101845560009384526020909320015501611538565b506001016114ef565b507f9db24e8589fa2d6fcc91f7d7005b4c46c4d2aaa2ccb7357dad7634e40e91e307601d601c6000815481106115e1576115e1611d1c565b90600052602060002001601c6001815481106115ff576115ff611d1c565b90600052602060002001601c60028154811061161d5761161d611d1c565b90600052602060002001604051611637949392919061210d565b60405180910390a1565b61164961036c565b60ff1660021461166c57604051630fec256b60e31b815260040160405180910390fd5b61167461168c565b61167c6116e9565b6116846117be565b61065b61181a565b61169461036c565b60ff166002146116b757604051630fec256b60e31b815260040160405180910390fd5b600380546116c7916007916118b2565b50600580546116d8916008916118b2565b50600480546114a6916009916118b2565b6116f161036c565b60ff1660021461171457604051630fec256b60e31b815260040160405180910390fd5b60405163b976bd1760e01b81524260048201527f00000000000000000000000000000000000000000000000000000000000000006001600160a01b03169063b976bd1790602401600060405180830381600087803b15801561177557600080fd5b505af1158015611789573d6000803e3d6000fd5b50506040517fdba47677e6c2fb41724400c88a900a09137365e2261db2f4c0a76057769b86169250611637915060079061215a565b6117c661036c565b60ff166002146117e957604051630fec256b60e31b815260040160405180910390fd5b6040517f98401b5889a21d5bf27b9c9b441fbd1a159d5f26091a2938f1b026e5d75fd3c7906116379060099061215a565b61182261036c565b60ff1660021461184557604051630fec256b60e31b815260040160405180910390fd5b6040517f39d24295ba4a6bcc4a392f067f557a5da65dfd3ac8f6039c030cb78438ff4e75906116379060089061215a565b50805460008255906000526020600020908101906114a6919061190a565b50805460008255906000526020600020908101906114a69190611927565b8280548282559060005260206000209081019282156118fa5760005260206000209182015b828111156118fa57816118ea84826121c2565b50916001019190600101906118d7565b5061190692915061193c565b5090565b8082111561190657600061191e8282611894565b5060010161190a565b5b808211156119065760008155600101611928565b808211156119065760006119508282611959565b5060010161193c565b50805461196590611d67565b6000825580601f10611975575050565b601f0160209004906000526020600020908101906114a69190611927565b634e487b7160e01b600052604160045260246000fd5b604051601f8201601f1916810167ffffffffffffffff811182821017156119d2576119d2611993565b604052919050565b600067ffffffffffffffff8211156119f4576119f4611993565b5060051b60200190565b60006020808385031215611a1157600080fd5b823567ffffffffffffffff811115611a2857600080fd5b8301601f81018513611a3957600080fd5b8035611a4c611a47826119da565b6119a9565b81815260059190911b82018301908381019087831115611a6b57600080fd5b928401925b82841015611a8957833582529284019290840190611a70565b979650505050505050565b80356001600160a01b03811681146113f257600080fd5b60008060408385031215611abe57600080fd5b611ac783611a94565b946020939093013593505050565b600082601f830112611ae657600080fd5b813567ffffffffffffffff811115611b0057611b00611993565b611b13601f8201601f19166020016119a9565b818152846020838601011115611b2857600080fd5b816020850160208301376000918101602001919091529392505050565b60ff811681146114a657600080fd5b60008060408385031215611b6757600080fd5b823567ffffffffffffffff811115611b7e57600080fd5b611b8a85828601611ad5565b9250506020830135611b9b81611b45565b809150509250929050565b60008060408385031215611bb957600080fd5b50508035926020909101359150565b600060208284031215611bda57600080fd5b5035919050565b60006020808385031215611bf457600080fd5b823567ffffffffffffffff80821115611c0c57600080fd5b818501915085601f830112611c2057600080fd5b8135611c2e611a47826119da565b81815260059190911b83018401908481019088831115611c4d57600080fd5b8585015b83811015611c8557803585811115611c695760008081fd5b611c778b89838a0101611ad5565b845250918601918601611c51565b5098975050505050505050565b600060208284031215611ca457600080fd5b81356110dc81611b45565b600060208284031215611cc157600080fd5b6110dc82611a94565b600080600060608486031215611cdf57600080fd5b83359250611cef60208501611a94565b9150604084013590509250925092565b600060208284031215611d1157600080fd5b81516110dc81611b45565b634e487b7160e01b600052603260045260246000fd5b634e487b7160e01b600052601160045260246000fd5b600060ff821660ff8103611d5e57611d5e611d32565b60010192915050565b600181811c90821680611d7b57607f821691505b602082108103611d9b57634e487b7160e01b600052602260045260246000fd5b50919050565b601f82111561086b576000816000526020600020601f850160051c81016020861015611dca5750805b601f850160051c820191505b81811015611de957828155600101611dd6565b505050505050565b815167ffffffffffffffff811115611e0b57611e0b611993565b611e1f81611e198454611d67565b84611da1565b602080601f831160018114611e545760008415611e3c5750858301515b600019600386901b1c1916600185901b178555611de9565b600085815260208120601f198616915b82811015611e8357888601518255948401946001909101908401611e64565b5085821015611ea15787850151600019600388901b60f8161c191681555b5050505050600190811b01905550565b8082018082111561076a5761076a611d32565b8181038181111561076a5761076a611d32565b634e487b7160e01b600052601260045260246000fd5b600082611efc57611efc611ed7565b500690565b60008154611f0e81611d67565b60018281168015611f265760018114611f3b57611f6a565b60ff1984168752821515830287019450611f6a565b8560005260208060002060005b85811015611f615781548a820152908401908201611f48565b50505082870194505b5050505092915050565b6000611f89611f838386611f01565b84611f01565b949350505050565b60008154611f9e81611d67565b808552602060018381168015611fbb5760018114611fd557612003565b60ff1985168884015283151560051b880183019550612003565b866000528260002060005b85811015611ffb5781548a8201860152908301908401611fe0565b890184019650505b505050505092915050565b6040815260006120216040830185611f91565b90508260208301529392505050565b600060ff83168061204357612043611ed7565b8060ff84160691505092915050565b808202811582820484141761076a5761076a611d32565b60006001820161207b5761207b611d32565b5060010190565b84815260806020820152600061209b6080830186611f91565b8460408401528281036060840152611a898185611f91565b6000602082840312156120c557600080fd5b5051919050565b600081548084526020808501945083600052602060002060005b83811015612102578154875295820195600191820191016120e6565b509495945050505050565b60808152600061212060808301876120cc565b828103602084015261213281876120cc565b9050828103604084015261214681866120cc565b90508281036060840152611a8981856120cc565b600060208083016020845280855480835260408601915060408160051b870101925086600052602060002060005b828110156121b557878503603f190184526121a38583611f91565b94509285019260019182019101612188565b5092979650505050505050565b8181036121cd575050565b6121d78254611d67565b67ffffffffffffffff8111156121ef576121ef611993565b6121fd81611e198454611d67565b6000601f82116001811461223157600083156122195750848201545b600019600385901b1c1916600184901b178455612296565b600085815260209020601f19841690600086815260209020845b8381101561226b578286015482556001958601959091019060200161224b565b50858310156122895781850154600019600388901b60f8161c191681555b50505060018360011b0184555b505050505056fea2646970667358221220598ad4cecc43c771d982a4e2c255422d823ca9960c20a54d6bb4081165e184b064736f6c634300081800334d616a6f7220616476616e63656d656e747320696e20626c6f636b636861696e20746563686e6f6c6f6779206c65616420746f20707269636520696e637265617365732e7468652065786368616e67657320617265206861636b65642c207072696365732074656e6420746f2064656372656173652e476c6f62616c2065636f6e6f6d696320696e73746162696c697479206361757365732070726963657320746f2064656372656173652e54686520617070726f76616c2062792074686520552e532e205365637572697469657320616e642045786368616e676520436f6d6d697373696f6e20285345432920726573756c747320696e20707269636520696e637265617365732ea2646970667358221220953b031d33f8a3839a9dadae4dd1b0936d11b1c5ae0ae2ee18f6d5866b6daf9364736f6c63430008180033","linkReferences":{}},"methodIdentifiers":{"acceptOwnership()":"79ba5097","checkIfTimerOut()":"13545353","createGame()":"7255d729","donId()":"8dbe7b9d","getGameState()":"b7d0628b","handleOracleFulfillment(bytes32,bytes,bytes)":"0ca76175","i_interval()":"6919207d","owner()":"8da5cb5b","rawFulfillRandomWords(uint256,uint256[])":"1fe543e3","requestAI(string,uint8,bytes,string[],bytes[],uint64,uint32)":"3b43bb23","requestRandomWords()":"e0c86289","s_AI_requestIdToGameAddress(bytes32)":"3e88ca08","s_Automation_startTime(address)":"fb35ae86","s_VRF_requestIdToGameAddress(uint256)":"87e3d4fa","s_gamesState(address)":"d9c15561","setDonId(bytes32)":"78ca5de7","setGameState(uint8)":"6dd047f3","setTimer(uint256)":"b976bd17","transferOwnership(address)":"f2fde38b"},"id":41}