{"abi":[{"type":"constructor","inputs":[{"name":"VRF_subscriptionId","type":"uint64","internalType":"uint64"},{"name":"gasLane","type":"bytes32","internalType":"bytes32"},{"name":"VRF_callbackGasLimit","type":"uint32","internalType":"uint32"},{"name":"vrfCoordinator","type":"address","internalType":"address"},{"name":"AI_subscriptionId","type":"uint64","internalType":"uint64"},{"name":"AI_callbackGasLimit","type":"uint32","internalType":"uint32"},{"name":"donID","type":"bytes32","internalType":"bytes32"},{"name":"router","type":"address","internalType":"address"},{"name":"interval","type":"uint256","internalType":"uint256"}],"stateMutability":"nonpayable"},{"type":"function","name":"acceptOwnership","inputs":[],"outputs":[],"stateMutability":"nonpayable"},{"type":"function","name":"checkIfTimerOut","inputs":[],"outputs":[],"stateMutability":"nonpayable"},{"type":"function","name":"createGame","inputs":[],"outputs":[{"name":"","type":"address","internalType":"address"}],"stateMutability":"payable"},{"type":"function","name":"donId","inputs":[],"outputs":[{"name":"","type":"bytes32","internalType":"bytes32"}],"stateMutability":"view"},{"type":"function","name":"getGameState","inputs":[],"outputs":[{"name":"","type":"uint8","internalType":"enum UpperControl.GameState"}],"stateMutability":"view"},{"type":"function","name":"handleOracleFulfillment","inputs":[{"name":"requestId","type":"bytes32","internalType":"bytes32"},{"name":"response","type":"bytes","internalType":"bytes"},{"name":"err","type":"bytes","internalType":"bytes"}],"outputs":[],"stateMutability":"nonpayable"},{"type":"function","name":"i_interval","inputs":[],"outputs":[{"name":"","type":"uint256","internalType":"uint256"}],"stateMutability":"view"},{"type":"function","name":"owner","inputs":[],"outputs":[{"name":"","type":"address","internalType":"address"}],"stateMutability":"view"},{"type":"function","name":"rawFulfillRandomWords","inputs":[{"name":"requestId","type":"uint256","internalType":"uint256"},{"name":"randomWords","type":"uint256[]","internalType":"uint256[]"}],"outputs":[],"stateMutability":"nonpayable"},{"type":"function","name":"requestAI","inputs":[{"name":"source","type":"string","internalType":"string"},{"name":"secretsLocation","type":"uint8","internalType":"enum FunctionsRequest.Location"},{"name":"encryptedSecretsReference","type":"bytes","internalType":"bytes"},{"name":"args","type":"string[]","internalType":"string[]"},{"name":"bytesArgs","type":"bytes[]","internalType":"bytes[]"},{"name":"subscriptionId","type":"uint64","internalType":"uint64"},{"name":"callbackGasLimit","type":"uint32","internalType":"uint32"}],"outputs":[{"name":"requestId","type":"bytes32","internalType":"bytes32"}],"stateMutability":"nonpayable"},{"type":"function","name":"requestRandomWords","inputs":[],"outputs":[{"name":"requestId","type":"uint256","internalType":"uint256"}],"stateMutability":"nonpayable"},{"type":"function","name":"s_AI_requestIdToGameAddress","inputs":[{"name":"","type":"bytes32","internalType":"bytes32"}],"outputs":[{"name":"","type":"address","internalType":"address"}],"stateMutability":"view"},{"type":"function","name":"s_Automation_startTime","inputs":[{"name":"","type":"address","internalType":"address"}],"outputs":[{"name":"","type":"uint256","internalType":"uint256"}],"stateMutability":"view"},{"type":"function","name":"s_VRF_requestIdToGameAddress","inputs":[{"name":"","type":"uint256","internalType":"uint256"}],"outputs":[{"name":"","type":"address","internalType":"address"}],"stateMutability":"view"},{"type":"function","name":"s_gamesState","inputs":[{"name":"","type":"address","internalType":"address"}],"outputs":[{"name":"","type":"uint8","internalType":"enum UpperControl.GameState"}],"stateMutability":"view"},{"type":"function","name":"setDonId","inputs":[{"name":"newDonId","type":"bytes32","internalType":"bytes32"}],"outputs":[],"stateMutability":"nonpayable"},{"type":"function","name":"setGameState","inputs":[{"name":"_gameState","type":"uint8","internalType":"uint8"}],"outputs":[],"stateMutability":"nonpayable"},{"type":"function","name":"setTimer","inputs":[{"name":"_startTime","type":"uint256","internalType":"uint256"}],"outputs":[],"stateMutability":"nonpayable"},{"type":"function","name":"transferOwnership","inputs":[{"name":"to","type":"address","internalType":"address"}],"outputs":[],"stateMutability":"nonpayable"},{"type":"event","name":"AI_RequestFulfilled","inputs":[{"name":"requestId","type":"bytes32","indexed":false,"internalType":"bytes32"},{"name":"reponse","type":"bytes","indexed":false,"internalType":"bytes"},{"name":"err","type":"bytes","indexed":false,"internalType":"bytes"}],"anonymous":false},{"type":"event","name":"AI_RequestSent","inputs":[{"name":"requestId","type":"bytes32","indexed":false,"internalType":"bytes32"}],"anonymous":false},{"type":"event","name":"GameCreated","inputs":[{"name":"gameAddress","type":"address","indexed":true,"internalType":"address"}],"anonymous":false},{"type":"event","name":"GameFinished","inputs":[{"name":"gameAddr","type":"address","indexed":true,"internalType":"address"}],"anonymous":false},{"type":"event","name":"OwnershipTransferRequested","inputs":[{"name":"from","type":"address","indexed":true,"internalType":"address"},{"name":"to","type":"address","indexed":true,"internalType":"address"}],"anonymous":false},{"type":"event","name":"OwnershipTransferred","inputs":[{"name":"from","type":"address","indexed":true,"internalType":"address"},{"name":"to","type":"address","indexed":true,"internalType":"address"}],"anonymous":false},{"type":"event","name":"RequestFulfilled","inputs":[{"name":"id","type":"bytes32","indexed":true,"internalType":"bytes32"}],"anonymous":false},{"type":"event","name":"RequestSent","inputs":[{"name":"id","type":"bytes32","indexed":true,"internalType":"bytes32"}],"anonymous":false},{"type":"event","name":"StateChange","inputs":[{"name":"prev","type":"uint8","indexed":true,"internalType":"enum UpperControl.GameState"},{"name":"curr","type":"uint8","indexed":true,"internalType":"enum UpperControl.GameState"}],"anonymous":false},{"type":"event","name":"TimerStarted","inputs":[{"name":"gameAddress","type":"address","indexed":true,"internalType":"address"},{"name":"startTime","type":"uint256","indexed":true,"internalType":"uint256"}],"anonymous":false},{"type":"event","name":"VRF_RequestFulfilled","inputs":[{"name":"requestId","type":"uint256","indexed":true,"internalType":"uint256"},{"name":"randomWords","type":"uint256[]","indexed":true,"internalType":"uint256[]"}],"anonymous":false},{"type":"event","name":"VRF_RequestSent","inputs":[{"name":"requestId","type":"uint256","indexed":true,"internalType":"uint256"},{"name":"s_numWords","type":"uint32","indexed":true,"internalType":"uint32"}],"anonymous":false},{"type":"error","name":"CallerNotGameContract","inputs":[]},{"type":"error","name":"EmptyArgs","inputs":[]},{"type":"error","name":"EmptySource","inputs":[]},{"type":"error","name":"GameNotInProgress","inputs":[{"name":"state","type":"uint8","internalType":"enum UpperControl.GameState"}]},{"type":"error","name":"NoInlineSecrets","inputs":[]},{"type":"error","name":"OnlyCoordinatorCanFulfill","inputs":[{"name":"have","type":"address","internalType":"address"},{"name":"want","type":"address","internalType":"address"}]},{"type":"error","name":"OnlyRouterCanFulfill","inputs":[]},{"type":"error","name":"UpkeepNotNeeded","inputs":[]}],"bytecode":{"object":"0x6101c06040523480156200001257600080fd5b50604051620040443803806200404483398101604081905262000035916200021f565b6001600160a01b03808716608052821660a05233806000816200009f5760405162461bcd60e51b815260206004820152601860248201527f43616e6e6f7420736574206f776e657220746f207a65726f000000000000000060448201526064015b60405180910390fd5b600080546001600160a01b0319166001600160a01b0384811691909117909155811615620000d257620000d2816200012a565b5050506001600160a01b0395861660c05260e0979097526001600160401b039788166101005263ffffffff95861661012052929096166101605290921661018052600793909355909116610140526101a052620002bf565b336001600160a01b03821603620001845760405162461bcd60e51b815260206004820152601760248201527f43616e6e6f74207472616e7366657220746f2073656c66000000000000000000604482015260640162000096565b600180546001600160a01b0319166001600160a01b0383811691821790925560008054604051929316917fed8889f560326eb138920d842192f0eb3dd22b4f139c87a2c57538e05bae12789190a350565b80516001600160401b0381168114620001ed57600080fd5b919050565b805163ffffffff81168114620001ed57600080fd5b80516001600160a01b0381168114620001ed57600080fd5b60008060008060008060008060006101208a8c0312156200023f57600080fd5b6200024a8a620001d5565b985060208a015197506200026160408b01620001f2565b96506200027160608b0162000207565b95506200028160808b01620001d5565b94506200029160a08b01620001f2565b935060c08a01519250620002a860e08b0162000207565b91506101008a015190509295985092959850929598565b60805160a05160c05160e05161010051610120516101405161016051610180516101a051613cfd6200034760003960008181610233015261053001526000505060005050600050506000610de201526000610daf01526000610d8101526000610e1001526000818161043601526114c30152600081816106cf01526107120152613cfd6000f3fe6080604052600436106200012b5760003560e01c806379ba509711620000ad578063b976bd17116200006c578063b976bd171462000364578063d9c155611462000389578063e0c8628914620003bd578063f2fde38b14620003d5578063fb35ae8614620003fa57600080fd5b806379ba509714620002a957806387e3d4fa14620002c15780638da5cb5b14620002fb5780638dbe7b9d146200031b578063b7d0628b146200033357600080fd5b80633e88ca0811620000fa5780633e88ca0814620001cc5780636919207d146200021f5780636dd047f314620002555780637255d729146200027a57806378ca5de7146200028457600080fd5b80630ca7617514620001305780631354535314620001575780631fe543e3146200016f5780633b43bb231462000194575b600080fd5b3480156200013d57600080fd5b50620001556200014f36600462001c76565b6200042b565b005b3480156200016457600080fd5b5062000155620004b2565b3480156200017c57600080fd5b50620001556200018e36600462001d0f565b620006c4565b348015620001a157600080fd5b50620001b9620001b336600462001e8e565b62000754565b6040519081526020015b60405180910390f35b348015620001d957600080fd5b5062000206620001eb36600462001f97565b6003602052600090815260409020546001600160a01b031681565b6040516001600160a01b039091168152602001620001c3565b3480156200022c57600080fd5b50620001b97f000000000000000000000000000000000000000000000000000000000000000081565b3480156200026257600080fd5b50620001556200027436600462001fb1565b6200095a565b6200020662000a6b565b3480156200029157600080fd5b5062000155620002a336600462001f97565b62000bac565b348015620002b657600080fd5b506200015562000bbb565b348015620002ce57600080fd5b5062000206620002e036600462001f97565b6002602052600090815260409020546001600160a01b031681565b3480156200030857600080fd5b506000546001600160a01b031662000206565b3480156200032857600080fd5b50620001b960075481565b3480156200034057600080fd5b503360009081526005602052604090205460ff165b604051620001c3919062001fec565b3480156200037157600080fd5b50620001556200038336600462001f97565b62000c67565b3480156200039657600080fd5b5062000355620003a836600462002015565b60056020526000908152604090205460ff1681565b348015620003ca57600080fd5b50620001b962000d29565b348015620003e257600080fd5b5062000155620003f436600462002015565b62000ed6565b3480156200040757600080fd5b50620001b96200041936600462002015565b60046020526000908152604090205481565b336001600160a01b037f00000000000000000000000000000000000000000000000000000000000000001614620004755760405163c6829f8360e01b815260040160405180910390fd5b6200048283838362000eee565b60405183907f85e1543bf2f84fe80c6badbce3648c8539ad1df4d2b3d822938ca0538be727e690600090a2505050565b6006546000819003620004c25750565b6000620004d160018362002056565b90506000620004e260018462002056565b90505b82811115620006bf576000600682815481106200050657620005066200206c565b60009182526020808320909101546001600160a01b031680835260049091526040909120549091507f0000000000000000000000000000000000000000000000000000000000000000906200055c904262002056565b1115620006b457828203620005a75760068054806200057f576200057f62002082565b600082815260209020810160001990810180546001600160a01b031916905501905562000651565b60068381548110620005bd57620005bd6200206c565b600091825260209091200154600680546001600160a01b039092169184908110620005ec57620005ec6200206c565b9060005260206000200160006101000a8154816001600160a01b0302191690836001600160a01b0316021790555060068054806200062e576200062e62002082565b600082815260209020810160001990810180546001600160a01b03191690550190555b6200065c8362002098565b9250806001600160a01b0316638575ec886040518163ffffffff1660e01b8152600401600060405180830381600087803b1580156200069a57600080fd5b505af1158015620006af573d6000803e3d6000fd5b505050505b5060001901620004e5565b505050565b336001600160a01b037f00000000000000000000000000000000000000000000000000000000000000001614620007445760405163073e64fd60e21b81523360048201526001600160a01b037f00000000000000000000000000000000000000000000000000000000000000001660248201526044015b60405180910390fd5b62000750828262000f4e565b5050565b6000803360009081526005602052604090205460ff1660038111156200077e576200077e62001fd6565b036200079d5760405163a9acc16d60e01b815260040160405180910390fd5b620007df6040805160e0810190915280600081526020016000815260200160008152602001606081526020016060815260200160608152602001606081525090565b620008286000808f8f8080601f01602080910402602001604051908101604052809392919081815260200183838082843760009201919091525087959493925050620010d79050565b602081018b600281111562000841576200084162001fd6565b9081600281111562000857576200085762001fd6565b8152505089898080601f01602080910402602001604051908101604052809392919081815260200183838082843760009201919091525050505060808201528615620008b557620008b5620008ad888a620020b2565b829062001162565b8415620008d457620008d4620008cc868862002143565b82906200118d565b620008ee620008e382620011b8565b8585600754620014be565b6000818152600360205260409081902080546001600160a01b03191633179055519092507f8b2283d7ac4a4eab9d1b06d73aa76d75ea92912b03e9b37d31fc0d14e1417bd690620009429084815260200190565b60405180910390a1509b9a5050505050505050505050565b3360009081526005602052604081205460ff16600381111562000981576200098162001fd6565b03620009a05760405163a9acc16d60e01b815260040160405180910390fd5b3360009081526005602052604090205460ff9081169082166003811115620009cc57620009cc62001fd6565b336000908152600560205260409020805460ff19166001836003811115620009f857620009f862001fd6565b02179055508160ff16600381111562000a155762000a1562001fd6565b600381111562000a295762000a2962001fd6565b81600381111562000a3e5762000a3e62001fd6565b6040517ffa441dfe95ea7994c16c2c9120482b6fe0888963d94853674dde4d7a7c10582790600090a35050565b6000662386f26fc10000341462000abc5760405162461bcd60e51b8152602060048201526014602482015273125b98dbdc9c9958dd0819995948185b5bdd5b9d60621b60448201526064016200073b565b6000662386f26fc100003360405162000ad59062001b69565b6001600160a01b0390911681526020016040518091039082f090508015801562000b03573d6000803e3d6000fd5b5090506001600160a01b03811662000b5e5760405162461bcd60e51b815260206004820152601e60248201527f47616d6520696e7374616e6365206372656174696f6e206661696c65642e000060448201526064016200073b565b6001600160a01b038116600081815260056020526040808220805460ff19166001179055517f4f0d1d413a983b9df8ab6ab954635b186a1e9a09ee6dc1b43263ddbf484122679190a2919050565b62000bb662001595565b600755565b6001546001600160a01b0316331462000c105760405162461bcd60e51b815260206004820152601660248201527526bab9ba10313290383937b837b9b2b21037bbb732b960511b60448201526064016200073b565b60008054336001600160a01b0319808316821784556001805490911690556040516001600160a01b0390921692909183917f8be0079c531659141344cd1fd0a4f28419497f9722a3daafe3b4186f6b6457e091a350565b3360009081526005602052604081205460ff16600381111562000c8e5762000c8e62001fd6565b0362000cad5760405163a9acc16d60e01b815260040160405180910390fd5b33600081815260046020526040808220849055600680546001810182559083527ff652222313e28459528d920b65115c16c04f3efc82aaedc97be59f3f377c0d3f0180546001600160a01b03191684179055518392917f9d757e5a6b681468cf04f59f7130ca94029fb9ee21d19d94576858464728370a91a350565b6000803360009081526005602052604090205460ff16600381111562000d535762000d5362001fd6565b0362000d725760405163a9acc16d60e01b815260040160405180910390fd5b6040516305d3b1d360e41b81527f000000000000000000000000000000000000000000000000000000000000000060048201526001600160401b037f00000000000000000000000000000000000000000000000000000000000000001660248201526003604482015263ffffffff7f0000000000000000000000000000000000000000000000000000000000000000166064820152600160848201527f00000000000000000000000000000000000000000000000000000000000000006001600160a01b031690635d3b1d309060a4016020604051808303816000875af115801562000e62573d6000803e3d6000fd5b505050506040513d601f19601f8201168201806040525081019062000e889190620021b3565b60008181526002602052604080822080546001600160a01b031916331790555191925060019183917f7a2a27da85202b292c498bd36a9710339b194a2bd504e33d2eac7ed028085f7391a390565b62000ee062001595565b62000eeb81620015ec565b50565b600083815260036020526040908190205490516001600160a01b03909116907f35459c43e058473b8eb8bf4b55a22fdb09df6899ccda8de2209ccdb990b9e0639062000f409086908690869062002215565b60405180910390a150505050565b6000828152600260205260409020546001600160a01b03168062000faa5760405162461bcd60e51b8152602060048201526012602482015271125b9d985b1a59081c995c5d595cdd08125160721b60448201526064016200073b565b6000816001600160a01b03166380679c4d8460008151811062000fd15762000fd16200206c565b60200260200101516040518263ffffffff1660e01b815260040162000ff891815260200190565b6020604051808303816000875af115801562001018573d6000803e3d6000fd5b505050506040513d601f19601f820116820180604052508101906200103e91906200224e565b9050806200108f5760405162461bcd60e51b815260206004820152601860248201527f72616e646f6d20776f7264732073656e74206661696c6564000000000000000060448201526064016200073b565b826040516200109f919062002272565b6040519081900381209085907ff8d60ef7d8b195cc4da42a49eb2fe995d5abaf85abefb989c3535b70390b62d790600090a350505050565b8051600003620010fa576040516322ce3edd60e01b815260040160405180910390fd5b8383600281111562001110576200111062001fd6565b9081600281111562001126576200112662001fd6565b905250604084018280156200113f576200113f62001fd6565b9081801562001152576200115262001fd6565b9052506060909301929092525050565b8051600003620011855760405163fe936cb760e01b815260040160405180910390fd5b60a090910152565b8051600003620011b05760405163fe936cb760e01b815260040160405180910390fd5b60c090910152565b60606000620011c961010062001697565b9050620012046040518060400160405280600c81526020016b31b7b232a637b1b0ba34b7b760a11b81525082620016bc90919063ffffffff16565b8251620012279060028111156200121f576200121f62001fd6565b8290620016d9565b6040805180820190915260088152676c616e677561676560c01b602082015262001253908290620016bc565b60408301516200126e9080156200121f576200121f62001fd6565b604080518082019091526006815265736f7572636560d01b602082015262001298908290620016bc565b6060830151620012aa908290620016bc565b60a0830151511562001344576040805180820190915260048152636172677360e01b6020820152620012de908290620016bc565b620012e98162001717565b60005b8360a001515181101562001338576200132f8460a0015182815181106200131757620013176200206c565b602002602001015183620016bc90919063ffffffff16565b600101620012ec565b5062001344816200173f565b6080830151511562001417576000836020015160028111156200136b576200136b62001fd6565b036200138a5760405163a80d31f760e01b815260040160405180910390fd5b60408051808201909152600f81526e39b2b1b932ba39a637b1b0ba34b7b760891b6020820152620013bd908290620016bc565b620013da836020015160028111156200121f576200121f62001fd6565b6040805180820190915260078152667365637265747360c81b602082015262001405908290620016bc565b60808301516200141790829062001761565b60c08301515115620014b65760408051808201909152600981526862797465734172677360b81b602082015262001450908290620016bc565b6200145b8162001717565b60005b8360c0015151811015620014aa57620014a18460c0015182815181106200148957620014896200206c565b6020026020010151836200176190919063ffffffff16565b6001016200145e565b50620014b6816200173f565b515192915050565b6000807f00000000000000000000000000000000000000000000000000000000000000006001600160a01b031663461d27628688600188886040518663ffffffff1660e01b815260040162001518959493929190620022aa565b6020604051808303816000875af115801562001538573d6000803e3d6000fd5b505050506040513d601f19601f820116820180604052508101906200155e9190620021b3565b60405190915081907f1131472297a800fee664d1d89cfa8f7676ff07189ecc53f80bbb5f4969099db890600090a295945050505050565b6000546001600160a01b03163314620015ea5760405162461bcd60e51b815260206004820152601660248201527527b7363c9031b0b63630b1363290313c9037bbb732b960511b60448201526064016200073b565b565b336001600160a01b03821603620016465760405162461bcd60e51b815260206004820152601760248201527f43616e6e6f74207472616e7366657220746f2073656c6600000000000000000060448201526064016200073b565b600180546001600160a01b0319166001600160a01b0383811691821790925560008054604051929316917fed8889f560326eb138920d842192f0eb3dd22b4f139c87a2c57538e05bae12789190a350565b620016a162001b77565b8051620016af908362001770565b5060006020820152919050565b620016cb8260038351620017f4565b8151620006bf908262001929565b8151620016e89060c262001953565b506200075082826040516020016200170291815260200190565b60405160208183030381529060405262001761565b62001724816004620019c4565b600181602001818151620017399190620022f5565b90525050565b6200174c816007620019c4565b60018160200181815162001739919062002056565b620016cb8260028351620017f4565b604080518082019091526060815260006020820152620017926020836200230b565b15620017c157620017a56020836200230b565b620017b290602062002056565b620017be9083620022f5565b91505b602080840183905260405180855260008152908184010181811015620017e657600080fd5b604052508290505b92915050565b6017816001600160401b031611620018235782516200181d9060e0600585901b16831762001953565b50505050565b60ff816001600160401b031611620018685782516200184e906018611fe0600586901b161762001953565b5082516200181d906001600160401b0383166001620019dd565b61ffff816001600160401b031611620018ae57825162001894906019611fe0600586901b161762001953565b5082516200181d906001600160401b0383166002620019dd565b63ffffffff816001600160401b031611620018f6578251620018dc90601a611fe0600586901b161762001953565b5082516200181d906001600160401b0383166004620019dd565b82516200190f90601b611fe0600586901b161762001953565b5082516200181d906001600160401b0383166008620019dd565b6040805180820190915260608152600060208201526200194c8383845162001a6d565b9392505050565b60408051808201909152606081526000602082015282515160006200197a826001620022f5565b905084602001518210620019a057620019a0856200199a8360026200232e565b62001b4e565b8451602083820101858153508051821115620019ba578181525b5093949350505050565b8151620006bf90601f611fe0600585901b161762001953565b604080518082019091526060815260006020820152835151600062001a038285620022f5565b9050856020015181111562001a245762001a24866200199a8360026200232e565b6000600162001a368661010062002445565b62001a42919062002056565b9050865182810187831982511617815250805183111562001a61578281525b50959695505050505050565b604080518082019091526060815260006020820152825182111562001a9157600080fd5b835151600062001aa28483620022f5565b9050856020015181111562001ac35762001ac3866200199a8360026200232e565b85518051838201602001916000918085111562001ade578482525b505050602086015b6020861062001b26578051825262001b00602083620022f5565b915062001b0f602082620022f5565b905062001b1e60208762002056565b955062001ae6565b51815160001960208890036101000a0190811690199190911617905250849150509392505050565b815162001b5c838362001770565b506200181d838262001929565b611874806200245483390190565b604051806040016040528062001ba0604051806040016040528060608152602001600081525090565b8152602001600081525090565b634e487b7160e01b600052604160045260246000fd5b604051601f8201601f191681016001600160401b038111828210171562001bee5762001bee62001bad565b604052919050565b60006001600160401b0383111562001c125762001c1262001bad565b62001c27601f8401601f191660200162001bc3565b905082815283838301111562001c3c57600080fd5b828260208301376000602084830101529392505050565b600082601f83011262001c6557600080fd5b6200194c8383356020850162001bf6565b60008060006060848603121562001c8c57600080fd5b8335925060208401356001600160401b038082111562001cab57600080fd5b62001cb98783880162001c53565b9350604086013591508082111562001cd057600080fd5b5062001cdf8682870162001c53565b9150509250925092565b60006001600160401b0382111562001d055762001d0562001bad565b5060051b60200190565b6000806040838503121562001d2357600080fd5b823591506020808401356001600160401b0381111562001d4257600080fd5b8401601f8101861362001d5457600080fd5b803562001d6b62001d658262001ce9565b62001bc3565b81815260059190911b8201830190838101908883111562001d8b57600080fd5b928401925b8284101562001dab5783358252928401929084019062001d90565b80955050505050509250929050565b60008083601f84011262001dcd57600080fd5b5081356001600160401b0381111562001de557600080fd5b60208301915083602082850101111562001dfe57600080fd5b9250929050565b80356003811062001e1557600080fd5b919050565b60008083601f84011262001e2d57600080fd5b5081356001600160401b0381111562001e4557600080fd5b6020830191508360208260051b850101111562001dfe57600080fd5b80356001600160401b038116811462001e1557600080fd5b803563ffffffff8116811462001e1557600080fd5b600080600080600080600080600080600060e08c8e03121562001eb057600080fd5b6001600160401b03808d35111562001ec757600080fd5b62001ed68e8e358f0162001dba565b909c509a5062001ee960208e0162001e05565b99508060408e0135111562001efd57600080fd5b62001f0f8e60408f01358f0162001dba565b909950975060608d013581101562001f2657600080fd5b62001f388e60608f01358f0162001e1a565b909750955060808d013581101562001f4f57600080fd5b5062001f628d60808e01358e0162001e1a565b909450925062001f7560a08d0162001e61565b915062001f8560c08d0162001e79565b90509295989b509295989b9093969950565b60006020828403121562001faa57600080fd5b5035919050565b60006020828403121562001fc457600080fd5b813560ff811681146200194c57600080fd5b634e487b7160e01b600052602160045260246000fd5b60208101600483106200200f57634e487b7160e01b600052602160045260246000fd5b91905290565b6000602082840312156200202857600080fd5b81356001600160a01b03811681146200194c57600080fd5b634e487b7160e01b600052601160045260246000fd5b81810381811115620017ee57620017ee62002040565b634e487b7160e01b600052603260045260246000fd5b634e487b7160e01b600052603160045260246000fd5b600081620020aa57620020aa62002040565b506000190190565b6000620020c362001d658462001ce9565b80848252602080830192508560051b850136811115620020e257600080fd5b855b81811015620021375780356001600160401b03811115620021055760008081fd5b870136601f820112620021185760008081fd5b6200212836823586840162001bf6565b865250938201938201620020e4565b50919695505050505050565b60006200215462001d658462001ce9565b80848252602080830192508560051b8501368111156200217357600080fd5b855b81811015620021375780356001600160401b03811115620021965760008081fd5b620021a436828a0162001c53565b86525093820193820162002175565b600060208284031215620021c657600080fd5b5051919050565b6000815180845260005b81811015620021f557602081850181015186830182015201620021d7565b506000602082860101526020601f19601f83011685010191505092915050565b838152606060208201526000620022306060830185620021cd565b8281036040840152620022448185620021cd565b9695505050505050565b6000602082840312156200226157600080fd5b815180151581146200194c57600080fd5b815160009082906020808601845b838110156200229e5781518552938201939082019060010162002280565b50929695505050505050565b6001600160401b038616815260a060208201526000620022ce60a0830187620021cd565b61ffff9590951660408301525063ffffffff92909216606083015260809091015292915050565b80820180821115620017ee57620017ee62002040565b6000826200232957634e487b7160e01b600052601260045260246000fd5b500690565b8082028115828204841417620017ee57620017ee62002040565b600181815b80851115620023895781600019048211156200236d576200236d62002040565b808516156200237b57918102915b93841c93908002906200234d565b509250929050565b600082620023a257506001620017ee565b81620023b157506000620017ee565b8160018114620023ca5760028114620023d557620023f5565b6001915050620017ee565b60ff841115620023e957620023e962002040565b50506001821b620017ee565b5060208310610133831016604e8410600b84101617156200241a575081810a620017ee565b62002426838362002348565b80600019048211156200243d576200243d62002040565b029392505050565b60006200194c83836200239156fe60a060408190526000805461ffff191681556001556200187438819003908190833981016040819052620000339162000107565b336080526000548190600b9060ff166003811062000055576200005562000139565b0180546001600160a01b0319166001600160a01b03928316179055811660008181527f628971151cb24dee737f6abea9bff35ce226e4c8f5760305d49b372572839090602090815260408083206127109055825460ff9081168452601d83528184209484529382528083206103e89055825484168352601f909152812060649055805490918291620000e891166200014f565b91906101000a81548160ff021916908360ff160217905550506200017d565b6000602082840312156200011a57600080fd5b81516001600160a01b03811681146200013257600080fd5b9392505050565b634e487b7160e01b600052603260045260246000fd5b600060ff821660ff81036200017457634e487b7160e01b600052601160045260246000fd5b60010192915050565b6080516116b8620001bc6000396000818161035f015281816105e6015281816109560152818161099801528181610a450152610a8701526116b86000f3fe6080604052600436106100f35760003560e01c80638575ec881161008a578063c457fb3711610059578063c457fb3714610299578063dc7b3055146102c6578063e55ae4e8146102e6578063f3e626401461030657600080fd5b80638575ec881461020c578063922a211814610221578063a9438abc14610241578063ae771f6b1461026157600080fd5b8063511cd8cf116100c6578063511cd8cf1461016e5780635ebb63651461019c57806375c1631d146101bc57806380679c4d146101dc57600080fd5b8063125c4f65146100f85780631865c57d1461011a578063218bd5771461014657806326f789a21461014e575b600080fd5b34801561010457600080fd5b5061011861011336600461119e565b610326565b005b34801561012657600080fd5b5061012f61035b565b60405160ff90911681526020015b60405180910390f35b6101186103e6565b34801561015a57600080fd5b506101186101693660046111f9565b610676565b34801561017a57600080fd5b5061018e6101893660046112df565b610798565b60405190815260200161013d565b3480156101a857600080fd5b5061018e6101b73660046112df565b6107c2565b3480156101c857600080fd5b506101186101d7366004611309565b6107e9565b3480156101e857600080fd5b506101fc6101f736600461132b565b610949565b604051901515815260200161013d565b34801561021857600080fd5b50610118610a0f565b34801561022d57600080fd5b5061011861023c366004611309565b610b10565b34801561024d57600080fd5b5061011861025c366004611344565b610c55565b34801561026d57600080fd5b5061028161027c36600461132b565b610d24565b6040516001600160a01b03909116815260200161013d565b3480156102a557600080fd5b5061018e6102b436600461132b565b6000908152601f602052604090205490565b3480156102d257600080fd5b5061018e6102e1366004611368565b610d44565b3480156102f257600080fd5b5061028161030136600461132b565b610dc7565b34801561031257600080fd5b50610118610321366004611383565b610ded565b81600280018260ff168154811061033f5761033f6113b8565b9060005260206000200190816103559190611458565b50505050565b60007f00000000000000000000000000000000000000000000000000000000000000006001600160a01b031663b7d0628b6040518163ffffffff1660e01b81526004016020604051808303816000875af11580156103bd573d6000803e3d6000fd5b505050506040513d601f19601f820116820180604052508101906103e19190611518565b905090565b60005b60005460ff90811690821610156104495733600b60ff831660038110610411576104116113b8565b01546001600160a01b03160361044157604051637b811e5b60e01b81523360048201526024015b60405180910390fd5b6001016103e9565b50662386f26fc10000341461047157604051636bae82db60e11b815260040160405180910390fd5b600054600360ff909116106104995760405163e98beec560e01b815260040160405180910390fd5b6104a161035b565b60ff166001146104c457604051631afef96760e31b815260040160405180910390fd5b6000543390600b9060ff16600381106104df576104df6113b8565b0180546001600160a01b0319166001600160a01b03929092169190911790553360008181527f628971151cb24dee737f6abea9bff35ce226e4c8f5760305d49b372572839090602090815260408083206127109055825460ff9081168452601d83528184209484529382528083206103e89055825484168352601f909152812060649055805490918291610573911661154b565b825460ff9182166101009390930a92830291909202199091161790556040513381527fd196f2977fe2b8b63f631a98b5e5967845e4fcf00f48ced5587cafe76122ea9c9060200160405180910390a160005460ff166002190161067457604051636dd047f360e01b8152600260048201527f00000000000000000000000000000000000000000000000000000000000000006001600160a01b031690636dd047f390602401600060405180830381600087803b15801561063257600080fd5b505af1158015610646573d6000803e3d6000fd5b50506040517f4cf2e2dcdeacb2322843921968cb0e6a97a686594cb0a4f29abb65a7ed651952925060009150a15b565b60005b6003811015610793578161068e82600361156a565b8151811061069e5761069e6113b8565b6020026020010151600260000182815481106106bc576106bc6113b8565b9060005260206000200190816106d29190611458565b50816106df82600361156a565b6106ea906001611581565b815181106106fa576106fa6113b8565b602002602001015160026001018281548110610718576107186113b8565b90600052602060002001908161072e9190611458565b508161073b82600361156a565b610746906002611581565b81518110610756576107566113b8565b602002602001015160026003018281548110610774576107746113b8565b90600052602060002001908161078a9190611458565b50600101610679565b505050565b6000818152601d602090815260408083206001600160a01b03861684529091529020545b92915050565b6000908152601e602090815260408083206001600160a01b03949094168352929052205490565b6000805b600381101561082b5733600b826003811061080a5761080a6113b8565b01546001600160a01b031603610823576001915061082b565b6001016107ed565b50801561092e5761083a61035b565b60ff1660021461085d57604051630fec256b60e31b815260040160405180910390fd5b60006108693385610798565b90508281101561089d5760405163a484ed0f60e01b8152600481018590526024810184905260448101829052606401610438565b6000848152601e60209081526040808320338452909152812080548592906108c6908490611581565b90915550506000848152601d60209081526040808320338452909152812080548592906108f4908490611594565b90915550506040518390339086907f7765a1c07bdce3390c521eaeb86030b188b77cbaba2d76bd7c9c32d906bfbcba90600090a450505050565b60405163f5665c0b60e01b8152336004820152602401610438565b6000336001600160a01b037f000000000000000000000000000000000000000000000000000000000000000016146109c55760405163eceacbd560e01b81523360048201526001600160a01b037f0000000000000000000000000000000000000000000000000000000000000000166024820152604401610438565b6109cd61035b565b60ff166002146109f057604051630fec256b60e31b815260040160405180910390fd5b6109fb600f836115a7565b610a06906010611581565b6001555b919050565b610a1761035b565b60ff16600214610a3a57604051630fec256b60e31b815260040160405180910390fd5b336001600160a01b037f00000000000000000000000000000000000000000000000000000000000000001614610ab45760405163eceacbd560e01b81523360048201526001600160a01b037f0000000000000000000000000000000000000000000000000000000000000000166024820152604401610438565b60005b6003811015610b0d576000601c6000600b8460038110610ad957610ad96113b8565b01546001600160a01b0316815260208101919091526040016000205460ff169050610b0382610fa9565b5050600101610ab7565b50565b6000805b6003811015610b525733600b8260038110610b3157610b316113b8565b01546001600160a01b031603610b4a5760019150610b52565b600101610b14565b50801561092e57610b6161035b565b60ff16600214610b8457604051630fec256b60e31b815260040160405180910390fd5b6000610b9033856107c2565b905082811015610bc4576040516367b75ab560e01b8152600481018590526024810184905260448101829052606401610438565b6000848152601e6020908152604080832033845290915281208054859290610bed908490611594565b90915550506000848152601d6020908152604080832033845290915281208054859290610c1b908490611581565b90915550506040518390339086907f16a4cf4c8063831dff6354ec352b7d70902de559371b4c578fa72e3c754a2d1790600090a450505050565b6000805b6003811015610c975733600b8260038110610c7657610c766113b8565b01546001600160a01b031603610c8f5760019150610c97565b600101610c59565b50801561092e57610ca661035b565b60ff16600214610cc957604051630fec256b60e31b815260040160405180910390fd5b336000818152601c6020908152604091829020805460ff191660ff87169081179091558251938452908301527f8684a5861ae8ac05e20450002c4db07118cb5cb1d412a0ff78c2685b13964f18910160405180910390a15050565b600b8160038110610d3457600080fd5b01546001600160a01b0316905081565b6000805b6003811015610d9c576000818152601f6020526040902054610d6a84836107c2565b610d748584610798565b610d7e9190611581565b610d88919061156a565b610d929083611581565b9150600101610d48565b50610da88260036107c2565b610db3836003610798565b610dbd9190611581565b6107bc9082611581565b6000600b8260038110610ddc57610ddc6113b8565b01546001600160a01b031692915050565b6000805b6003811015610e2f5733600b8260038110610e0e57610e0e6113b8565b01546001600160a01b031603610e275760019150610e2f565b600101610df1565b50801561092e57610e3e61035b565b60ff16600214610e6157604051630fec256b60e31b815260040160405180910390fd5b6000610e6d84866107c2565b905082811015610ea1576040516367b75ab560e01b8152600481018690526024810184905260448101829052606401610438565b6000858152601e602090815260408083206001600160a01b038816845290915281208054859290610ed3908490611594565b90915550506000858152601f6020526040902054610ef1908461156a565b6001600160a01b03851660009081527f628971151cb24dee737f6abea9bff35ce226e4c8f5760305d49b372572839090602052604081208054909190610f38908490611581565b90915550506000858152601d6020908152604080832033845290915281208054859290610f66908490611581565b909155505060405183906001600160a01b0386169087907f787925e050e8cb8dba61a675397ced37ba5304fc76b70c50b62753eed7c9ef6490600090a450610355565b6000610fb361035b565b60ff16600214610fd657604051630fec256b60e31b815260040160405180910390fd5b5060408051426020808301919091526bffffffffffffffffffffffff193360601b16828401526054808301859052835180840390910181526074909201909252805191012060008054610100900460ff16900361106c5760408051828152602081018490527fa9e3f640f8d103969a480cfdc3b4deae671b0c660a9682733fb75d3d0d18924f91015b60405180910390a1919050565b7f8b8e7a803a7abf62a6d05feea279d6fbe61130791839f4614f45f7b3186852ad81600e84600381106110a1576110a16113b8565b60040201600301846002800186815481106110be576110be6113b8565b9060005260206000200160405161105f9493929190611646565b634e487b7160e01b600052604160045260246000fd5b604051601f8201601f1916810167ffffffffffffffff81118282101715611117576111176110d8565b604052919050565b600082601f83011261113057600080fd5b813567ffffffffffffffff81111561114a5761114a6110d8565b61115d601f8201601f19166020016110ee565b81815284602083860101111561117257600080fd5b816020850160208301376000918101602001919091529392505050565b60ff81168114610b0d57600080fd5b6000806000606084860312156111b357600080fd5b83359250602084013567ffffffffffffffff8111156111d157600080fd5b6111dd8682870161111f565b92505060408401356111ee8161118f565b809150509250925092565b6000806040838503121561120c57600080fd5b8235915060208084013567ffffffffffffffff8082111561122c57600080fd5b818601915086601f83011261124057600080fd5b813581811115611252576112526110d8565b8060051b6112618582016110ee565b918252838101850191858101908a84111561127b57600080fd5b86860192505b838310156112b7578235858111156112995760008081fd5b6112a78c89838a010161111f565b8352509186019190860190611281565b809750505050505050509250929050565b80356001600160a01b0381168114610a0a57600080fd5b600080604083850312156112f257600080fd5b6112fb836112c8565b946020939093013593505050565b6000806040838503121561131c57600080fd5b50508035926020909101359150565b60006020828403121561133d57600080fd5b5035919050565b60006020828403121561135657600080fd5b81356113618161118f565b9392505050565b60006020828403121561137a57600080fd5b611361826112c8565b60008060006060848603121561139857600080fd5b833592506113a8602085016112c8565b9150604084013590509250925092565b634e487b7160e01b600052603260045260246000fd5b600181811c908216806113e257607f821691505b60208210810361140257634e487b7160e01b600052602260045260246000fd5b50919050565b601f821115610793576000816000526020600020601f850160051c810160208610156114315750805b601f850160051c820191505b818110156114505782815560010161143d565b505050505050565b815167ffffffffffffffff811115611472576114726110d8565b6114868161148084546113ce565b84611408565b602080601f8311600181146114bb57600084156114a35750858301515b600019600386901b1c1916600185901b178555611450565b600085815260208120601f198616915b828110156114ea578886015182559484019460019091019084016114cb565b50858210156115085787850151600019600388901b60f8161c191681555b5050505050600190811b01905550565b60006020828403121561152a57600080fd5b81516113618161118f565b634e487b7160e01b600052601160045260246000fd5b600060ff821660ff810361156157611561611535565b60010192915050565b80820281158282048414176107bc576107bc611535565b808201808211156107bc576107bc611535565b818103818111156107bc576107bc611535565b6000826115c457634e487b7160e01b600052601260045260246000fd5b500690565b600081546115d6816113ce565b8085526020600183811680156115f3576001811461160d5761163b565b60ff1985168884015283151560051b88018301955061163b565b866000528260002060005b858110156116335781548a8201860152908301908401611618565b890184019650505b505050505092915050565b84815260806020820152600061165f60808301866115c9565b846040840152828103606084015261167781856115c9565b97965050505050505056fea2646970667358221220074d06a9a96afb48c05ca32219a2a6447ca2b2012a148d6aeb5444934354836064736f6c63430008180033a2646970667358221220f9a79f642ec2513220b5afc58fa4ec53181a1edeb2307f4b09753c6c6f60b34164736f6c63430008180033","linkReferences":{}},"methodIdentifiers":{"acceptOwnership()":"79ba5097","checkIfTimerOut()":"13545353","createGame()":"7255d729","donId()":"8dbe7b9d","getGameState()":"b7d0628b","handleOracleFulfillment(bytes32,bytes,bytes)":"0ca76175","i_interval()":"6919207d","owner()":"8da5cb5b","rawFulfillRandomWords(uint256,uint256[])":"1fe543e3","requestAI(string,uint8,bytes,string[],bytes[],uint64,uint32)":"3b43bb23","requestRandomWords()":"e0c86289","s_AI_requestIdToGameAddress(bytes32)":"3e88ca08","s_Automation_startTime(address)":"fb35ae86","s_VRF_requestIdToGameAddress(uint256)":"87e3d4fa","s_gamesState(address)":"d9c15561","setDonId(bytes32)":"78ca5de7","setGameState(uint8)":"6dd047f3","setTimer(uint256)":"b976bd17","transferOwnership(address)":"f2fde38b"},"id":48}